:020000021000EC
:10800000004000204DFA010089FA01008BFA0100BE
:108010000000000000000000000000000000000060
:108020000000000000000000000000008DFA0100C8
:1080300000000000000000008FFA010091FA01002A
:1080400093FA010095B20100B102020093FA010017
:1080500093FA01000000000055FB010093FA0100B3
:1080600093FA01008D0402000500020093FA01005A
:1080700093FA010093FA010093FA010093FA0100C8
:1080800093FA010093FA010093FA010093FA0100B8
:1080900093FA010059F80100F9F7010093FA010081
:1080A00093FA010093FA01000000000000000000B4
:1080B00000000000000000000000000000000000C0
:1080C00010B5064C2378002B07D1054B002B02D0AE
:1080D000044800E000BF0123237010BDB820002039
:1080E000000000006CAB0200084B10B5002B03D061
:1080F0000749084800E000BF07480368002B00D18B
:1081000010BD064B002BFBD09847F9E7000000009C
:10811000BC2000206CAB0200AC200020000000005E
:10812000164B002B00D1144B9D46402292029A1A06
:10813000924600218B460F461348144A121A11F03A
:1081400025FA0F4B002B00D098470E4B002B00D088
:1081500098470020002104000D000D48002802D09F
:108160000C4800E000BF0CF0A1FD2000290010F039
:1081700017FF0CF085FDC0460000080000400020FD
:108180000000000000000000B0200020EC290020CA
:10819000000000000000000010B50400034B036065
:1081A00040300DF03FFD200010BDC0462098020079
:1081B0001FB50D4A13685C1C14600C4A9B00985054
:1081C00003A80DF0F9FD0022094801920092130066
:1081D00003A9EC3002F06EFC03A80DF0E0FDFA20DC
:1081E000800000F02DFF1FBD80250020D42400203A
:1081F000D8200020F0B587B006000F0005A80C9924
:108200001D0003920DF0D8FD154C00222000130034
:108210000192009205A9EC3002F04CFC05A80DF08B
:10822000BEFDDF239B00E018390002F079FF9F2399
:108230009B00E018310002F073FFCF239B00E01891
:10824000290002F06DFFBF239B00E018039902F0A4
:1082500067FFFA20800000F0F3FE07B0F0BDC046D3
:10826000D8200020F0B5002685B0534B03AC1B6826
:108270009E4200DB90E0514BB200D05802380528F6
:108280007AD808F015FA03790A25415D4C49200097
:108290000DF092FD0094012374E00025494F200069
:1082A00039000DF089FD48482B002A002100019576
:1082B0000095EC3002F0FEFB20000DF070FD39005F
:1082C00020000DF079FD012300942A00190051E0EF
:1082D00000253E4F200039000DF06EFD3A482B007E
:1082E0002A00210001950095EC3002F0E3FB20000C
:1082F0000DF055FD390020000DF05EFD01220094C7
:108300002B002900100040E00025314F20003900EB
:108310000DF052FD2C482B002A00210001950095FC
:10832000EC3002F0C7FB20000DF039FD39002000D1
:108330000DF042FD00942B002A002900012024E0CA
:108340000025244F200039000DF036FD1E482B007B
:108350002A00210001950095EC3002F0ABFB2000D3
:108360000DF01DFD390020000DF026FD2B0001222F
:1083700029000094280008E0174920000DF01CFD9A
:10838000002300941A0019001800FFF733FF2000A3
:108390000DF005FD013668E7104920000DF00CFDD9
:1083A0000023009418001A001900FFF723FF200093
:1083B0000DF0F5FC05B0F0BD80250020D424002090
:1083C000D024002074250020D8200020C8240020BC
:1083D00078250020D420002084250020CC240020F3
:1083E0001FB50B4903A80DF0E7FC0022094C0192D0
:1083F000EC340092130003A9200002F05BFB03A8F9
:108400000DF0CDFCFFF72EFF20000EF015F91FBD7B
:1084100088250020D82000201FB500240B4903A880
:108420000DF0CAFC0A482300220003A9019400941D
:10843000EC3002F03FFB03A80DF0B1FCFA20054B35
:1084400080001C6000F0FCFD1FBDC0467C250020A4
:10845000D82000208025002030B5384D89B004ACEC
:10846000280000F007FA364920000DF0A5FC002393
:1084700000941A0019001800FFF7BCFE20000DF050
:108480008EFCC82000F0DCFD03230122092120001E
:1084900002F0F8FD200002F077FE2A4BC3184A2BA9
:1084A00005D8FFF79DFF322000F0CAFDF2E7264B0A
:1084B000C318FA2B06D8254903A80DF07DFC03A9A3
:1084C000022030E00300C33BFF3B822B02D8FFF7C2
:1084D000A3FFE8E7831F042B06D81D4903A80DF06E
:1084E0006BFC03A904201EE00300283B142B0AD9CF
:1084F000053BFF3B642B0DD8164903A80DF05CFC2F
:1085000003A906200FE0144903A80DF055FC03A9A8
:10851000052008E0643864280BD8104903A80DF042
:108520004BFC072003A9FFF743FE03A80DF037FC1F
:10853000B9E72800EC300EF07FF8B4E7D82000202F
:10854000842500204AFCFFFF94FDFFFFD02400207B
:108550007425002078250020C8240020D420002085
:1085600070B5334D280000F0C5F8324C3249220076
:10857000280010F0A9FF314E3149300001F08AF88F
:10858000304D22002900300010F09EFF2E4E2F4962
:10859000300001F07FF822002900300010F094FF35
:1085A0002B4E2C49300001F075F8220029003000D4
:1085B00010F08AFF284E2949300001F06BF82200A4
:1085C0002900300010F080FF254E2649300001F0D0
:1085D00061F822002900300010F076FF224E234976
:1085E000300001F057F822002900300010F06CFF35
:1085F0001F4E2049300001F04DF8220029003000C4
:1086000010F062FF1C4E1D49300001F043F82200BB
:108610002900300010F058FF194E1A49300001F0BF
:1086200039F829003000220010F04EFF70BDC0461E
:10863000D820002000200020898601008425002009
:1086400034A202009F5D0200742500207BA202007C
:10865000C8240020C2A20200D420002009A30200E6
:108660007825002050A302008825002097A302004F
:10867000D0240020DEA302007C25002025A40200D7
:10868000CC2400206CA40200EB23194A9B0010B5F7
:10869000C25018330400C0180DF0C4FAF0239B0038
:1086A000E0180DF0BFFA84239B00E01801F0BAFB3C
:1086B0002000C530FF3001F0EBF820008D30FF3096
:1086C00001F006FB20006530FF3001F001FB2000C7
:1086D000EC3002F067F82000D03002F0BBFB200045
:1086E000643007F00BF9201DFFF756FD200010BD88
:1086F000249A02001423F0B5040095B019220093C7
:108700001821043002F004FE230027006433B4373C
:1087100013211800119307F0FDF838000EF0D5FA78
:108720002300B83300221E21180010930DF089FF9A
:108730002000D03002F0AEFB2300EC334A4A062181
:108740001800129302F052F8200000260123653031
:108750001A0000961121FF3001F036FB20008D3009
:108760000096012302221A21FF3001F02DFB250083
:108770002000C535B530FF351A2302220121FF3014
:1087800002F048FC109904233A22280001F010F965
:1087900084239B00E318139305230193183300935C
:1087A0002A003B001099139801F056FD96239B0078
:1087B000E0182A00129B139901F02CFF99239B00CB
:1087C000E01839001C2202F035FF9F239B00E018BF
:1087D00019230F93013B0E93013B0D93013B0C9327
:1087E000013B0B93013B0A93013B0993013B089327
:1087F000013B0793013B0693013B0593013B049327
:10880000013B0393013B0293013B0193013B08228F
:1088100000930721013B0DF01CFFEB239B00E018A8
:10882000390003F0B3F9F2239B00E0181D2102F098
:10883000CBFCFB239B00E65011982670032110F01F
:1088400089FB23002200200008499C33A0321C60D1
:1088500011605660064A80305A610221012207F0F9
:108860002BFA200015B0F0BD2898020073580200C2
:108870005F5802000123F0B5067889B004001E405D
:1088800000D0B0E0FD20800500F0E6FC2300D033EE
:108890001800029300F0B6FA00F0A6F9282000F0C4
:1088A00013FD050010300DF04CFA504B6E802B80FC
:1088B000182000F009FD07004D4B10C7039010224F
:1088C000310038000693079610F060FE082206A9D2
:1088D000380010F03DFE474B039A290053611223E4
:1088E000AA60EE60AB802E626E62029802F03EFAE1
:1088F000002805D028000DF04BF9280000F006FDF7
:108900000122237864201343237000F099FB002593
:1089100027006537FF3738000DF06CFC00283DD08C
:1089200020008D30FF300DF065FC002836D0092D79
:1089300034DC6420013500F083FB0A2DE8D1FB26EE
:108940002D492E48B60000F05BFCA359002B1CD12A
:1089500000F062F8010004A800F0C6FD05A80CF0C4
:10896000FAFFEB200123800005AA04A90093201838
:10897000029B03F0A9F905A80DF054F904A80DF025
:1089800051F9ED239B00E358A351EB2321009B00F9
:108990003A00EC31E01803F037FBB9E7FB26164943
:1089A0001648B60000F02CFCA559002D1BD100F094
:1089B00033F8010004A800F097FD05A80CF0CBFFE8
:1089C000EB239B00E01805AA029B04A9009503F085
:1089D0007BF905A80DF026F904A80DF023F9ED2385
:1089E0009B00E358A35109B0F0BDC046FD03000051
:1089F000E7580200A758020000200020001C0020B9
:108A0000BFF34F8F024A034BDA60BFF34F8FFEE78D
:108A10000400FA0500ED00E0F0B58DB005AF1922B5
:108A20001549380010F094FD0022144B05245A71AA
:108A300080225205566E0122250001940292039372
:108A40000199300007F0C4FE0800029907F03AFED1
:108A5000019B03996B430193029B361A6B4302936C
:108A6000631E2C1B6C433C19225C1C1ECA54E7D1AC
:108A700008000DB0F0BDC046E9A402001C2900208A
:108A8000F0B595B01822002106000EA810F07EFD6A
:108A900013210EA810F09AFB03210EA810F02CFC55
:108AA00001224A4B00921B68002B01D0DBB20093DD
:108AB0000123474A002109A807F06EFA454B9E4260
:108AC00000D9002672B6444B1022002105A81D686B
:108AD00010F05CFD414B642130000593052407F044
:108AE0007BFE60435030281806900A21300007F0C2
:108AF00073FE0A2107F056FF614350316918079150
:108B000030000A2107F04EFF4C43210050316C1811
:108B1000802608940024B601009B002B3CD004ADB5
:108B20000027032C02D180260024B6016B682C4A52
:108B3000029363000133D318002201921021581EC2
:108B400000780141039119788C4660460299095CCE
:108B50000398014204D00120904001990143019102
:108B600001320633092AE9D1019B2A68D9431D4BFA
:108B700009011940029B934203D1312F01DC0021EE
:108B800000E0314309A810F072FCFA23139A0F9900
:108B9000DB001068014201D1FFF732FF013B002BDF
:108BA000F7D1FA23013401377600E4B25B009F422B
:108BB000B7D1043508ABAB42B2D1044B1B68002BD4
:108BC000AAD0009B013BDBB20093A5E78C250020D7
:108BD000F0FF0000E70300000420002038A5020099
:108BE00002A50200F01F0000F8B50023144C23601A
:108BF0000CF0D2FE2500002808D0042120000CF043
:108C0000C7FE00281BD00F4B236018E00122A127CC
:108C100004210D4B0D4E1A602368FF000B4A706053
:108C2000944662465268084C002AFAD0E2591B0268
:108C3000013913430029F1D12B6001236360F8BD92
:108C400090250020ED5EBC0B00D00040FCD0004021
:108C5000F0B585B01F000AAB1B8806000291150015
:108C60000393002F1BD0282000F02EFB6B4604003E
:108C70001989039BAAB200933B000CF072FF336882
:108C800021005B683000984700280BD0002C08D0EA
:108C900020000CF07DFF200000F038FB01E00248CE
:108CA00000E0024805B0F0BD17FCFFFF16FCFFFF17
:108CB0000B4B70B51C68002C11D0656D00F0D0FB1B
:108CC000A36C002903D1834201D92C00F3E72000D3
:108CD0000CF095FE034920000CF07EFEF5E770BD18
:108CE000B8250020C0250020F0B5040093B00793FC
:108CF000230C0293294B04901C68294B05911E6894
:108D0000069285B20027002E46D0002C30D0636D2D
:108D100024480393A36C9AB21B0C99B2854216D1D6
:108D20002148824213D1002B04D0029B994201D0EA
:108D3000039CEAE7002F01D00127F9E720000CF09F
:108D40005EFE1A4920000CF047FE0137F0E7002ACA
:108D500001D09542ECD1002B02D0029B9942E7D181
:108D600020000CF04CFE114920000CF035FEDFE72E
:108D70000F4BEB18012B0FD91023029A00932900F7
:108D80000C4B08A80CF0EDFE336808A99B68300076
:108D9000984708A80CF0FCFE13B0F0BDB4250020E5
:108DA000C4250020FE030000FF030000C0250020B2
:108DB00002FCFFFFE98C010010B572B60B4B1C687A
:108DC000002C03D020000CF01AFE08E062B65C20F4
:108DD00000F07AFA5C220021040010F0D7FB002397
:108DE000E364034B2000E36310BDC04694250020DC
:108DF00000400020024B1878012318407047C046FD
:108E000022290020F7B50600FFF7F4FF051E33D135
:108E10001A4C2660FFF7D0FF194B1A4918600CF066
:108E2000DBFDFFF7C9FF184B1860184B4363184B65
:108E30008363206800280ED0C027164E2A00330016
:108E400015490097FFF704FF009733002A001349E4
:108E50002068FFF7FDFE0C2000F036FA0023838027
:108E600083710F4B03600F4B836000F011FB0121F6
:108E70000D4A13780B431370F7BDC046C42500207C
:108E800098250020C0250020C8250020FC3F002098
:108E9000C55A0200E98C0100FF030000FE03000038
:108EA00048980200B18C010022290020F7B5060085
:108EB0000D0017000193002801D1002015E00029C2
:108EC000FBD0FFF779FF041EF7D0084B019A4363EC
:108ED000066045608760064B002A00D0054B2000E5
:108EE000A36305490CF078FD2000FEBDFC3F002087
:108EF0008F5A0200AD5A0200C0250020024B1868AC
:108F0000434258417047C046C0250020002310B599
:108F100004499C006258002A01D00133F9E76050EF
:108F2000100010BD9C250020002310B5044A9900B4
:108F30008C58844201D00133F9E70020885010BDDD
:108F40009C25002010B50024074BE058002802D0D3
:108F500003685B6898470434182CF5D1034B1B68F1
:108F6000002B00D120BF10BD9C250020C025002073
:108F7000F8B5FFF73FFF002855D02B4E3468350079
:108F8000E36CDA0717D502252B43E3640423274F4C
:108F90003868C26C1343C364636BC3630CF055FD44
:108FA0003868416C03F02FFC3068C36C2B423AD018
:108FB00003F063FC37E01E4F1E4E3A68002A01D1D1
:108FC000326808E0216DB94205D1616D002900D1F8
:108FD0001100296000E02A602A6831688A4208D1BD
:108FE0001B0706D52C60FFF7ADFF3B68002BFAD0BE
:108FF0002B6029688C4216D03368994204D10E4BFD
:109000004B630E4B8B6305E09C4203D100224B6CFB
:10901000100006E020000CF018FD20002968626CAA
:109020004B6C03F0AFFBF8BD98250020BC25002059
:10903000C0250020C8250020FC3F0020C55A0200A2
:1090400070B50500FFF7D6FE002803D1280010F008
:109050004CF918E00C4B1C68E36CDB0706D5FFF7F6
:10906000ABFE0A4B1860002800D0040000F0F8F9AD
:109070002818A06420000CF0C2FC054920000CF068
:10908000ABFCFFF775FF70BD98250020BC250020C4
:10909000B8250020F0B51E4B85B01C681D4B06009E
:1090A0001A680F000393002A03D0FFF7A3FE0028DD
:1090B00001D119482AE0E36CDB070ED5FFF77CFEEF
:1090C000164B051E186008D00CF099FC14492800B6
:1090D0000CF082FC2C00FFF74BFF3B043343A364EE
:1090E00020000CF08CFC20000E490CF075FC0E4B9F
:1090F0000020F318012B09D9C023039800933A00EC
:109100000A4B31000068FFF7A3FD002005B0F0BD59
:1091100098250020C425002016FCFFFFBC25002058
:10912000C0250020B425002002FCFFFFE98C0100CF
:1091300010B5FFF75FFE002809D0054C20680CF041
:109140005EFC044920680CF047FCFFF711FF10BDDE
:109150009825002094250020F7B507000D00002871
:109160002DD0FFF747FE00282BD00724164E30687D
:10917000C36C1C4006D0154A290038000CF056FC80
:1091800000241FE003F061FB02213268D36C194018
:10919000019103D003218B43D36413E001242343C3
:1091A000D3642800B8473268D36C1900A143D16456
:1091B000019C5B0706D528000CF070FC02E0044C13
:1091C00000E0044C2000FEBD982500209D5A0200BE
:1091D00017FCFFFF16FCFFFF020010B5014B12CB7E
:1091E00012C210BDCC250020034A044B12681A603D
:1091F0007E225A607047C04604200020CC25002003
:1092000070B5114D02002B78022B19D0814219D96B
:109210000B1A072B16D90800032310431840041E0D
:1092200010D172B62B780948DB001A50C018416083
:109230000CF04EFC2B7801332B7062B6200002E05C
:10924000034800E0034870BD23290020D4250020F6
:1092500013FCFFFF17FCFFFF70B50021041C07F093
:10926000C3FB002823D1FE21201C890507F0C6FB83
:1092700000281CD104300BF03FFD05000F48401BB7
:1092800008F00CFB211C08F005F807F0EBFB0323AA
:109290009843040028000BF039FD20000BF02CFD52
:1092A000002806D1203C002CF7D1054805E00548F0
:1092B00003E00119FFF7A4FF002070BD0038002073
:1092C00013FCFFFF17FCFFFF70B5050000240D4BDA
:1092D0001B789C4209DA0C49E300C91828000CF0FD
:1092E000FFFB00280AD10134F1E728000BF004FD50
:1092F000041E04D11420FFF7C3FB00E0040020008B
:1093000070BDC04623290020D425002070B5002858
:1093100018D00D4B0D491C780023A34210DADA0057
:109320005558A8420AD98A185268904206D280231A
:10933000043802681B061343036003E00133ECE7C3
:109340000BF0E4FC70BDC04623290020D42500208A
:1093500070B5051E15DD0C4B0C4E1A681C00002A5A
:1093600002D030680FF060FEFA21256000243068DA
:10937000074B89008361C46269430FF05DFE2000E2
:1093800000E0044870BDC04614260020E4250020FB
:109390003D94010017FCFFFFF8B5114F06003D6832
:1093A000002D0AD13020FFF78FFF040006F020FBCC
:1093B0000C4BA5612360E5623C600B4D2B68002BD4
:1093C00009D11020FFF780FF04000FF082FE20007B
:1093D0002C600FF058FE3000FFF7BAFFF8BDC04612
:1093E000E4250020CC9D020010260020014B1868C7
:1093F0007047C0461426002070B50D4C2368002B22
:1094000003D00C4B1B68002B02D10620FFF7C4FFD2
:1094100020680FF04FFE02000749C3170D684E6821
:109420005219734120680A604B600FF049FE70BD0D
:1094300010260020E4250020B020002010B5FFF702
:10944000DBFF0024054BE058002802D003681B68AE
:1094500098470434282CF5D110BDC046E8250020DB
:1094600010B5FFF7C9FFFA22034B9200186859683C
:10947000002307F0D7FA10BDB020002010B5FFF789
:10948000BBFF024B1868596810BDC046B0200020D1
:109490000B4B10B51B680400002B03D0094B1B6855
:1094A000002B02D10620FFF777FF0023064A990020
:1094B0008858002801D00133F9E78C5010BDC04610
:1094C00010260020E4250020E8250020002310B508
:1094D000044A99008C58844201D00133F9E70020F6
:1094E000885010BDE825002010B50400002902D0E6
:1094F0000B78002B02D1034B236001E00CF099FBA9
:10950000200010BD58980200F8B505000E001400A8
:10951000002908D00B78002B05D0080097B210F076
:1095200075F8874202D90B4B2B6010E0601DFFF7E6
:10953000CBFE28600CF009FD28682200478031002E
:10954000043010F005F82B681C1900232371280043
:10955000F8BDC04658980200014B03607047C046F2
:109560005898020010B50548054C20600CF0F0FC3E
:10957000044A054920000FF0A7FF10BD58980200CB
:109580001826002000200020255C0200084B73B53F
:109590001C680500002C0AD001002668083108224A
:1095A00068460FF0D5FF0CCD31682000884773BDA9
:1095B0001C260020014B03607047C04660980200E3
:1095C00030B504686088814206DAA588AA4203DAC9
:1095D000002901DB002A01DA034804E04243601855
:1095E00080188371002030BD17FCFFFFF0B5070025
:1095F00085B00E001D0000291FDD002B1DD0046862
:10960000638803938B4200DD0391A3880293934206
:1096100000DD0292002306340193019B029A9342DB
:109620000DDA29002000039A0FF092FF3B68AD1974
:109630005B88E418019B0133EEE7024800E000205C
:1096400005B0F0BD17FCFFFFF8B504000D001600D3
:109650001F00002901DB002A02DA0D4B236016E00F
:10966000100048430630FFF72FFE20600CF06DFC21
:1096700023685D809E80002F06D03B0032002900C9
:109680002000FFF7B3FF02E020000CF09DFBF8BDC7
:1096900060980200F0B5060087B00C1E05D00020CF
:1096A0000F0005000190010015E0224B03603EE031
:1096B0003022524294469C446246092A14D90A2B0D
:1096C0000DD1019B2D1801330193A94200DA290025
:1096D0000020050001373B78002BE9D106E0002887
:1096E000F8D001350020F5E70120F3E76A469288BB
:1096F00009B212B23000FFF7A7FF33689D1D03AB1C
:109700001F002278002A12D011003039092902D80E
:109710001A70013309E000221A70BB4205D93800E3
:109720000FF0F6FE3B00287001350134E9E7300008
:1097300007B0F0BD60980200F0B5040087B004A83F
:1097400015001E000F00FFF747FD23685A88954259
:1097500008DA9B88B34205DD1F2F03D9059B0093D0
:109760009F4201DD18482DE0052300217B43009333
:10977000049B0193009B019ACB18A03BD35C002271
:10978000029373189C465319276803937888834281
:1097900002DABB889C4507DB0132052AF3D101318F
:1097A0000529E7D100200DE0634658435319FB1803
:1097B000102717411B1802980740781E87417F42E7
:1097C0009F71E9E707B0F0BD17FCFFFFF7B503682D
:1097D00006009C1D5B880D005A1A0192002918DDB5
:1097E0000027994202DB0CF0EFFA14E033689B8803
:1097F0009F4210DA6119019A20000FF0A9FE019B27
:109800002900E0180CF0D2FA336801375B88E418BD
:10981000ECE7024800E00020FEBDC04617FCFFFF59
:1098200010B50548054C20600CF092FB044A054930
:1098300020000FF049FE10BD609802002026002095
:10984000002000209F5D020010B5054C0121200082
:109850000CF072FB034A044920000FF035FE10BDE6
:109860002426002000200020F95E02000388074A19
:1098700010B50120934208D0834202D00020DB07BC
:1098800003D41E20FFF7FCF8002010BDFFFF0000EE
:1098900010B50400034B08330360FFF745FB2000BD
:1098A00010BDC04668980200FA2370B52A4A418963
:1098B0009B0059431300383304001E00083A1D680A
:1098C00018008D420BD2254B227B1D1D082A0BD878
:1098D000042A09D89D1C022A06D81D0004E0083B72
:1098E00006009342EBD1EEE7FA213068890006F0DA
:1098F000E9FE60812B78002223732A2120000CF0DE
:109900004AFB002801D0164824E010222B21200019
:109910000CF041FB0028F6D101222D2120000CF093
:109920003AFB0028EFD101222E2120000CF033FB5E
:109930000028E8D16A780E2120000CF02CFB0028CA
:10994000E1D1012233792A211A4320000CF023FBB4
:109950000028D8D170BDC0468098020018A7020028
:109960000EFCFFFF7FB515000F226A4404001E00A5
:109970001170002D15D0002B13DD012301890093F8
:10998000006B01F06DF9002801D007480AE0009053
:10999000218933002A00206B01F018F9002801D03A
:1099A000F3E7024804B070BD0EFCFFFF17FCFFFF99
:1099B000F7B5060000250193214B14360833040047
:1099C000036085808571C581058245820F00009204
:1099D0002900182230000FF0D9FD1C2130000FF0B3
:1099E000F5FB6B469B880222A3806B461B882100F7
:1099F00023811423638123003833A57122732763E5
:109A00003E311D705D706587A5870B7820009343FC
:109A1000F132134022000B7023004832157055803C
:109A20000135221DD5870833A21DD587DD87FFF7B5
:109A30003BFF002802D1A3791D43A5712000FEBD84
:109A40006898020030B50425837987B004002B4262
:109A500004D1FFF75BFAA3792B43A371A36AA26930
:109A60001B6800251A4228D106236A4601212000DE
:109A7000FFF778FF002801D0114D1EE06B4602224F
:109A8000207B9A5669464243D2001B7922820222E9
:109A90005BB243430978DB0049B241436382A37957
:109AA000C9009343E181A37120000CF082FA0123E5
:109AB000A1881A0002A80CF04FF9280007B030BDA9
:109AC0000EFCFFFFF8B50400FFF7BCFF0E22A35EFB
:109AD0007C4F5B42BB4205DA23003E331B789B0779
:109AE00000D5C6E02000FFF7ADFF0E22A35EC8221E
:109AF0005B4200255200934205DD23003E331B7874
:109B00009B0700D4B5E02000FFF79CFF1022A35E66
:109B10005B42BB4205DA23003E331B785B0700D56E
:109B2000B5E02000FFF78EFF1022A35EC8225B4243
:109B30005200934205DD23003E331B785B0700D4BF
:109B4000A5E026002000FFF77DFF1222A35E483625
:109B5000BB4205DA23003E331B781B0700D5A3E088
:109B60002000FFF76FFF1223E25EC8235B009A42DA
:109B700005DD23003E331B781B0700D494E0002D45
:109B800019D03378032B16D80133DBB23370012B95
:109B900004D1230000224A331A800CE0042B0AD19E
:109BA000220001213E3213784A340B431370002304
:109BB00023800B3384E03278002A1AD0210027005A
:109BC00001254A310B883E3701339BB20B80387830
:109BD000AC46054008D01D2B0BD9634698430023A3
:109BE00038700B80337004E0092B02D9013A0D80E4
:109BF000327020000CF048FA334A072390425FDDB0
:109C00002000FFF71FFF0E23E25E304E5242032377
:109C1000B24255DBC8252000FFF714FF0E23E25E99
:109C2000AD0052420423AA424ADC2000FFF70AFF9B
:109C30001023E25E02235242B24241DB2000FFF7D2
:109C400001FF1023E25E01235242AA4238DC2000C9
:109C5000FFF7F8FE1223E25E0523B24230DB20005C
:109C6000FFF7F0FE1223E25E0623AA4228DC00235F
:109C700026E00125210028003E310B785A08904348
:109C800002000220AA40834313430B703BE70125E7
:109C9000210028003E310B789A089043820004206E
:109CA000834313430B704CE7210001223E310B78B4
:109CB000D80882430820D200834313430B7060E727
:109CC0001800F8BD70FEFFFFFF700200E0FCFFFF10
:109CD00010B50400034B08330360FFF7F7FB2000C7
:109CE00010BDC046C098020070B5C369C2681B6849
:109CF0008AB00400451D1A4250D0EB7F002B01D0E2
:109D0000013BEB77EB7F082B0DD90122A37913429E
:109D100009D11343A371A188130006A80CF01CF805
:109D2000FFF79EFB2062EB7F012B26D80123A2794F
:109D30001A4222D00025A188A571022202A80CF0A7
:109D40000BF8A31DDE7F012E17D1FFF789FB2B0037
:109D5000226A801A994100900191019BA188AB422F
:109D600003D1174B009A9A4202D90123042201E041
:109D70003300032206A80BF0EFFF0323A279134060
:109D8000012B1AD1FFF76CFB0023226A801A99413C
:109D9000994208D10B4B984205D80EE0EB7F0B2B74
:109DA000B0D80133ADE70222A379A1881343A37190
:109DB0000332012306A80BF0CFFF0AB070BDC046E6
:109DC000E7030000DB050000F0B5070000250E00EA
:109DD00085B002930AAB1B7808370393104B04003D
:109DE00008330360019285808571290018223800AC
:109DF0000FF0CCFB039A310038000FF0ECF96B4602
:109E00006A469B88127AA380A31DE671DA77631DE8
:109E100025622000DD77FFF73BFB200005B0F0BD99
:109E2000C098020010B50400034B08330360FFF72D
:109E30007BF8200010BDC046D89802007FB5150001
:109E40000F226A4404001E001170002D15D0002B53
:109E500013DD012301890093C06B00F001FF00288E
:109E600001D007480AE00090218933002A00E06B06
:109E700000F0ACFE002801D0F3E7024804B070BD4A
:109E80000EFCFFFF17FCFFFF002330B585B003ACCD
:109E9000217001890093050001332200C06B00F09E
:109EA000DFFE002801D00A480FE020706070298989
:109EB000009002232200E86B00F088FE0028F2D117
:109EC000207863780002184300B205B030BDC04668
:109ED0000EFCFFFF13B56B46DC1D00232200237030
:109EE0000133FFF7ABFF002801D1207800E00148E3
:109EF00016BDC0460EFCFFFFD0B504000CF0A2F961
:109F0000E268A369981A09F04DF906000F00E369A9
:109F10002069181A09F046F932003B0009F0BEFC2E
:109F20000022104B08F03AFB0F4A104B08F020F8C3
:109F300009F0CEF90021041C06F04CFD002804D0E5
:109F4000201C0B4906F066FE041C201C09F06CF96D
:109F500002000B000020074908F09AFD09F0ECF818
:109F6000D0BDC04600806640EA2E4454FB21094023
:109F70000000B44300807640F0B5050087B0006C67
:109F80000CF023F9041C286C0CF016F90221061CB5
:109F900028000CF088F90221059028000CF095F9B2
:109FA00007F034FC0221019028000CF0A0F907F022
:109FB0002DFC0290201C09F037F904000D0009F077
:109FC00025FC09F085F929000390200009F0D4FB55
:109FD00009F07EF90490301C09F026F906000F0004
:109FE00009F014FC09F074F93900041C300009F080
:109FF000C3FB060005980F0007F008FC3900051C9C
:10A00000300009F065F9011C281C07F043F9211CF8
:10A01000051C019807F03EF9039907F03BF9011C74
:10A02000281C06F0F7FD211C051C029807F032F9E8
:10A03000049907F02FF9011C281C06F0EBFD09F02C
:10A04000F3F804000D000298039907F023F904992E
:10A05000061C019807F01EF9011C301C07F02EFAAF
:10A0600009F0E2F822002B0009F018FC00220C4B4A
:10A0700008F094FA0B4A0C4B07F07AFF09F028F924
:10A080000021041C06F0A6FC002804D0201C07496F
:10A0900006F0C0FD041C201C07F096FB07B0F0BDC5
:10A0A00000807640EA2E4454FB2119400000B4435E
:10A0B000F8B50022102105000CF0B6F81D4E00285E
:10A0C00035D1032708212800FFF704FFB0422ED026
:10A0D0003840041E27D1FA23174A69899B00594347
:10A0E000130050331E00083A1F6818008F4203D334
:10A0F000083B06009342F7D1FA213068890006F048
:10A10000E1FAA0226881112128000CF08DF80028C6
:10A110000DD10122337910211A4328000CF084F864
:10A12000002805D003E06420FEF78AFFCAE7014C4F
:10A130002000F8BD0EFCFFFFF0980200F0B50426E9
:10A140000500807985B03040041E16D10227280012
:10A150000CF078F8AB790622BB433343AB71A98886
:10A16000012368460BF0F8FDAB7920001A00B243DA
:10A17000AA713B4202D1024800E0024805B0F0BD9E
:10A1800014FCFFFF15FCFFFF10B5837904005A078C
:10A190000DD49B0701D4FFF7D1FF236C2000002BC7
:10A1A00002D0FFF7E9FE03E0FFF7A6FE00E001485A
:10A1B00010BDC04615FCFFFF70B5466C86B001AC03
:10A1C000050001916260A360002E0CD00B4905A828
:10A1D000FFF78AF90C23220005A930000CF0AEFD30
:10A1E00005A80BF01FFD2B000C3307CC07C3022280
:10A1F000AB791343AB7106B070BDC0461EA7020019
:10A20000642330B504000281438185B08180FFF76B
:10A210004FFF0222A379606C9343A371002813D0EF
:10A220000C490CF058FD051E0ED001000C22103117
:10A2300001A80FF08DF920000199029A039BFFF706
:10A24000BBFF2800FFF762F80122A3791343A37133
:10A2500005B030BD1EA70200F7B5009308AB1B8800
:10A260000400019309AB1D8800230F0016000D4A5E
:10A270008380083283710260C3600361436183613C
:10A28000C36103621D2124300BF0C1FF009BE76313
:10A290002664290020006364019AFFF7B1FF2000C3
:10A2A000FEBDC046D898020082B0F0B50400A3B04D
:10A2B0006420299328920FF018F804220C2107A893
:10A2C0000CF092FF2422CE4919A80FF041F9052283
:10A2D00004A811000BF081FDCA4905A8FFF7DAF9BF
:10A2E000A06800F079FBA568C74916A8FFF7FCF83D
:10A2F000782216A9280000F00FFC16A80BF092FC9B
:10A300006E256420013D0EF0F0FF002DF9D1A0680C
:10A3100000F062FBA0680CF08FF9012160680BF07F
:10A32000C7FE0121070060680BF0D5FE06000A2079
:10A330000EF0DBFF0022B54B03929F4210DB01328F
:10A3400003923A00C8320BDB04220392C822920027
:10A35000974205DC03220392C82F01DC013A0392E5
:10A36000002202929E4210DB012302933300C83385
:10A370000BDB04230293C8239B009E4205DC0323CE
:10A380000293C82E01DC013B02935D2604A80BF06A
:10A390001BFD02ABF61837007B78002B06D07B1E26
:10A3A00019783A78FF2304A8FFF70AF9812302AA53
:10A3B00003379B189F42EFD16B4608229A5E6B468B
:10A3C00004A80C21595EFF23FFF7FAF80023A068C8
:10A3D000009374301A0004A90BF006FD731E1B785D
:10A3E000039A934234D13378029A934230D17778EA
:10A3F000002F2DD1390020680BF055FF07F006FA29
:10A400003A00031C290007A80CF039FF3900206826
:10A410000BF05BFF07F0FAF90122031C290007A8E3
:10A420000CF02DFF390020680BF061FF07F0EEF90A
:10A430002900031C022207A80CF021FFFE2329009B
:10A440009B05032207A80CF01AFF01230135737046
:10A45000812302AA03369B189E42BFD164200EF0CE
:10A4600044FF0B2D00DC58E707A80CF0F4FE012296
:10A4700001000AA80CF0B8FE002507A80CF0EBFEBE
:10A4800085423CDA2900002207A80CF0E6FE0022F3
:10A49000061C290007A80CF0E0FE011C301C06F089
:10A4A000F9FE2900061C012207A80CF0D6FE0122A5
:10A4B000071C290007A80CF0D0FE011C381C06F070
:10A4C000E9FE311C06F0A6FB2900061C022207A8A3
:10A4D0000CF0C3FE02222900071C07A80CF0BDFEE9
:10A4E000011C381C06F0D6FE311C06F093FB290037
:10A4F000031C00220AA80CF0C2FE0135BDE707AA22
:10A500001100012316A80CF0D4FE16A90DA80CF01A
:10A510002FFF16A80CF0C4FE0AAA07A910A8012351
:10A520000CF0C7FE002310AA0DA913A80CF0C1FE61
:10A53000002213A811000CF090FE0022061C01213D
:10A5400013A80CF08AFE0022051C022113A80CF0AF
:10A5500084FEFC21071C8905301C06F09BFE07F0D9
:10A5600033F9FC21060016908905281C06F092FE9E
:10A5700007F02AF9FC21050017908905381C06F020
:10A5800089FE07F021F92A000300310018902068A5
:10A59000FFF712FEA0680CF04FF805A906A8A56801
:10A5A0000BF00AFC00221A4B009206A90193280026
:10A5B000130000F053FA06A80BF0F1FBFA2080001C
:10A5C0000EF093FEA0680CF037F813A80CF068FEAC
:10A5D00010A80CF065FE0DA80CF062FE0AA80CF0A5
:10A5E0005FFE05A80BF0DBFB04A80BF0D8FB07A867
:10A5F0000CF056FE23B0F0BC08BC02B01847C046B1
:10A6000029A702004DA7020092A70200E0FCFFFF6D
:10A61000DC050000F0B58360204B85B01F680500A5
:10A6200001604260002F36D02820FEF74DFE040066
:10A6300010300BF086FB0523238001336380182044
:10A64000FEF742FE164B06000293002320C61900B7
:10A6500001901022300003930EF098FF082202A907
:10A6600030000EF075FF0F4B019A2100536100235B
:10A67000E360C233A3800023A260236263623B686D
:10A6800038005B689847002805D020000BF080FA5E
:10A690002000FEF73BFE280005B0F0BD1C26002080
:10A6A000A9A2010007630200F7B5040001220025FA
:10A6B000A37A29009C460D339A40276F0092FB68CD
:10A6C0000193019B9D4231DABB687A696B43634415
:10A6D0005B00E67AD3181A785878E379012E04D112
:10A6E0005E1E361A100032000EE0022E05D15E1EEC
:10A6F000B21A267A013E301A06E0032E04D1267AD9
:10A70000013EB61A020030005B004343606F8218BE
:10A71000D3189B79627A934200DD1300627B1A4260
:10A7200002D00123AB4019430135CAE71123C943C5
:10A73000FB56606C994023691940009B19430EF049
:10A7400096FEA37B072B18D8627B581C52006273BD
:10A750000A499A00A073022B03D888580EF0BAFD5C
:10A76000A4E7074B2000236300236363054B89584C
:10A77000E462236414300EF05FFCF7BD60990200C0
:10A78000A9A601004763020010B50400044B036052
:10A790000EF04AFC200005F041F9200010BDC04633
:10A7A000CC9D020010B504000E4B08330360FEF789
:10A7B0008DFE200074300BF0F2FA200060300BF0B8
:10A7C000EEFA200058300BF02DFA200050300BF03C
:10A7D00029FA2000044B14306361FFF7D5FF2000F5
:10A7E00010BDC04648990200E09D0200F8B5002562
:10A7F0000400324B858008330360857114301600E5
:10A800000F0005F0F5F820002D4BE562636125642B
:10A810005030FEF7A1FE20005830FEF79DFE2000CC
:10A820006030FEF7C7FE20000423F25E336826671F
:10A83000590009B274300BF0D0FA3378226FE3710B
:10A840007368012623721023E572A572A780256123
:10A85000D356916859188B4204DA3000984001337E
:10A860000543F8E711230120D356D16859188B42CC
:10A8700006DA02009A402669013332432261F6E784
:10A880001420FEF721FD226900212A43012306003E
:10A8900005F082FBFF22627222000023012548326C
:10A8A00066646573A373237320001370A366FEF7B9
:10A8B000EFFDA37920002B43A371F8BD4899020056
:10A8C000E09D0200F0B5437A85B00400002B68D00B
:10A8D000837A00251A009C46012319000D3291400D
:10A8E00001912900076F0393FA680292029BAB4221
:10A8F0002CDDBB687A696B4363445B00E67AD3184E
:10A900001A785878E379012E04D15E1E361A1000A9
:10A9100032000EE0022E05D15E1EB21A267A013EEA
:10A92000301A06E0032E04D1267A013EB61A020040
:10A9300030005B004343606F8218D3189B79002B73
:10A9400002D0039BAB4019430135CFE71123C94324
:10A95000FB56606C994023691940019B19430EF026
:10A9600086FD667AB31EDBB2FC2B14D8FEF73EFDE3
:10A970000D4B0500236300230C4863630C4BFF2140
:10A98000E4622364704305F027FF2900414320005F
:10A9900014300EF051FB637A012B02D820000BF02B
:10A9A000DCFC05B0F0BDC0465B630200B6030000EE
:10A9B000476302001FB5012381881A0068460BF027
:10A9C000CBF9012303491A0068460BF0C5F905B01D
:10A9D00000BDC046FE0300001FB5030048331A78CF
:10A9E0000400002A0DD000221A70012381881A0069
:10A9F00068460BF0B1F9012304491A0068460BF0D0
:10AA0000ABF9200074300BF0DFF91FBDFF0300002D
:10AA100010B548300378002B06D00378012B03D003
:10AA2000012102480BF02AF810BDC046FF030000C8
:10AA300010B50121040006200BF020F8064B9842C7
:10AA400009D1230048331A78002A04D01B78012B3F
:10AA500001D020BFF5E710BD16FCFFFF73B5079CC2
:10AA60000500002C09DB060048363078002806D0A7
:10AA70003078012803D00D4816E00D4814E0069800
:10AA80001BB2C0B20090280012B274300BF0ACF9C7
:10AA90000020844207D02B004A331C8007234C350A
:10AAA0002880337000E0200076BDC04612FCFFFF16
:10AAB00017FCFFFFF0B587B00D9E05000F00029256
:10AAC0000393002E1EDBFFF7A3FF2B0048331C78F7
:10AAD000E4B2002C18D1390005A80BF06DF90C9BDD
:10AAE000029A009305A9039B01962800FFF7B6FF81
:10AAF00005A80BF054F9301E07D02800FFF798FF87
:10AB0000200002E0024800E0024807B0F0BDC04665
:10AB100017FCFFFF11FCFFFFF8B50400171E09DD4D
:10AB2000060048363378002B06D03378012B03D04B
:10AB30000C4816E00C4814E02200E3795632013B41
:10AB4000137023000025200054331D8050300BF07B
:10AB5000C6F823004A331F80022328004C34258086
:10AB60003370F8BD12FCFFFF17FCFFFFF7B50500BF
:10AB70000F00161E18DDFFF74BFF2B004833187827
:10AB8000C4B2002C12D1390001A80BF0A0F8320099
:10AB900001A92800FFF7C0FF01A80BF043F8280027
:10ABA000FFF746FF200002E0014800E00148FEBD3B
:10ABB00017FCFFFF11FCFFFFFF2902D841720020A4
:10ABC00000E001487047C04617FCFFFFF0B51F00CA
:10ABD00085B00AAB1B780400039300933B000D0083
:10ABE00016000EF096F9002832D0237D082B2DD8C0
:10ABF000236800221900FC318A62A021C9005A5042
:10AC0000154905205A500138C046C046C046C046C6
:10AC1000C046C046C046C046C046C046C046C04604
:10AC2000F1D1236801325A50A0220521D200995057
:10AC300005F0CAFB039B3200009329003B00200073
:10AC40000EF067F9237D01332375CCE7034800E05C
:10AC5000207505B0F0BDC046FC0F00000EFCFFFFE4
:10AC6000F0B51F0085B00AAB1B7804000393009376
:10AC70003B000D0016000EF034F9002832D0237D81
:10AC8000082B2DD8236800221900FC318A62A021EC
:10AC9000C9005A50154905205A500138C046C046CF
:10ACA000C046C046C046C046C046C046C046C04674
:10ACB000C046C046F1D1236801325A50A022052176
:10ACC000D200995005F080FB039B320000932900CD
:10ACD0003B0020000EF005F9237D01332375CCE7FE
:10ACE000034800E0207505B0F0BDC046FC0F000031
:10ACF0000EFCFFFFF8B50D1E25D000260227C46804
:10AD0000002C1DD0AA88A38853403B4216D13A425A
:10AD100003D1AB883B4207D010E0A968A0680CF0D3
:10AD200052FA002804D1F4E7A368AA68934205D137
:10AD30002B88002B09D022889A4206D0646ADFE76C
:10AD40002000002E0DDC07480BE06B88002B02D0A2
:10AD500062889A42F2D1A388034A01361343A38042
:10AD6000ECE7F8BD17FCFFFF0080FFFFF0B5060021
:10AD700085B00D1E58D00127C468002C19D00221BF
:10AD8000AA8800230A4202D0A3885B083B402268BD
:10AD900029688A4253D1002B06D0A968A0680CF01C
:10ADA00012FA002842D14AE0A368AA68934246D129
:10ADB0003CE0F1682A880F000B1E0CD1F5600123DE
:10ADC000214968460AF0C8FF20003AE0586A1F008F
:10ADD000002812D0030018889042F7D318003B00D7
:10ADE0000488944209D147886C88A74205D2446AF6
:10ADF0000300002C01D02000F2E799420AD1088814
:10AE0000824204D306D14C886888844202D96962A0
:10AE1000F56002E0596A69625D6201230A49684689
:10AE20000AF09AFF00200CE008480AE0A3881AB252
:10AE3000002A02DA5B045B0CA380054801E0646A27
:10AE40009BE705B0F0BDC046FD03000017FCFFFF07
:10AE500016FCFFFF064B10B51A00040008322C3315
:10AE6000026043600430FEF75FF8200010BDC0466A
:10AE70008099020008B4024B9C46043808BC604725
:10AE800055AE010008B4024B9C46043808BC60472C
:10AE9000796702000C4A002311002C32083110B5EA
:10AEA000038183724260C360036143614383016035
:10AEB00004000430FEF72AF8044B1A68002A00D177
:10AEC0001C60200010BDC046809902001C26002096
:10AED000F7B50E000125C4680192002C37D02388F5
:10AEE00032889A4201D0002B26D1638872889A4218
:10AEF00001D0002B20D1FDF77DFF0123002806D0D3
:10AF0000A288BF331340C03B5A425341DBB2019A7F
:10AF1000934210D1A7883BB2002B0CDB10223100EA
:10AF2000A0180EF015FB40231F4207D1FDF762FF6A
:10AF3000002803D006E00025646ACEE720000BF06D
:10AF400024FCF9E721000348FEF706F9F4E728009E
:10AF5000FEBDC0468B67020008B4024B9C46043815
:10AF600008BC604715690200F0B587B001930EABCD
:10AF70001B88060003930D9B0D000093019B02921A
:10AF80000C9F002B3DD0002F02D1009BDB0738D552
:10AF90002820FEF799F9040010300AF0D2FE6B4623
:10AFA0001B89258063801820FEF78EF9049707001F
:10AFB0000500009B10220593019B002108C7380063
:10AFC0000EF0E4FA082204A938000EF0C1FA0E4B84
:10AFD00002226B610023A5600399E3602362636230
:10AFE00033680A43A2805B6821003000984700283C
:10AFF00008D020000AF0CCFD2000FEF787F90348B6
:10B0000000E0034807B0F0BD4169020016FCFFFFF5
:10B0100017FCFFFFF0B50400160000258380164AD8
:10B02000164B85710260218146810573186889B0CD
:10B030008C46A8421DD0124A05950492C022029265
:10B040006A4604AB82CB82C2614623002A00FFF726
:10B050008BFF0B4A094B0692C022186802926A467F
:10B0600006AB079582CB82C223002A003100FFF78E
:10B070007BFF200009B0F0BDC49902001C2600200F
:10B080006B6A020030B5002403730123034D847101
:10B090000560818082734373846030BDDC99020057
:10B0A00010B583790400DB0702D58068FEF72EF91E
:10B0B000A3799B0702D5A068FEF728F9A3795B075F
:10B0C00007D5A0230021154ADB00D150A068FEF768
:10B0D0001DF9A3791B0709D5A0680CF0FCFE0E230F
:10B0E000E356834202D1A06801F02AFCA379DB0673
:10B0F00005D5A068002802D00368DB689847602364
:10B10000A2791A4205D0A068002802D003685B68C3
:10B1100098470023A360A37110BDC0460070004093
:10B12000F7B5037B04000F00DB0725D5012925D8DF
:10B13000022385791D4015D1FFF7B2FF1820FEF7D5
:10B14000C3F80E230600E3561822290001930EF0DF
:10B150001DFA019930000EF050F80222A379A66082
:10B160001343A371A3685A68002F03D0DB681A60E9
:10B17000002004E01B69FAE7014800E00148FEBD39
:10B1800016FCFFFF17FCFFFF70B5037B04009B0755
:10B1900015D5042583792B420DD1FFF781FF0820B7
:10B1A000FEF792F80E210600615604F073FCA379B5
:10B1B000A6602B43A371A06804F094FC00E0014852
:10B1C00070BDC04616FCFFFF70B5040000250D4B96
:10B1D0000E000833858085710360210014300BF068
:10B1E00006FD200021001C300BF024FD064BA6803C
:10B1F000A571E57125726572E560256120001C600E
:10B2000070BDC046EC990200282600208379DB0738
:10B2100002D54172002000E00048704716FCFFFF95
:10B220008379DB0701D5407A00E001487047C046CA
:10B2300016FCFFFF70B505690400002D22D0037ACB
:10B24000032B21D8FFF7ECFF283528702C20FEF7C0
:10B250003BF82C22002105000EF098F9002322690A
:10B260005362E368002B01D1E26005E0596A0029CE
:10B2700001D00B00FAE75A62237A25610133237269
:10B28000002002E0014800E0014870BD17FCFFFF0C
:10B2900013FCFFFF154B70B55A68154D002A03D0FB
:10B2A00000225A600132AA601B69114E002B1CD08B
:10B2B00000210E4B0F4C19618023DB00F358012B4A
:10B2C0000ED1A923DB00F1582068C9B2FFF79EFF19
:10B2D0002068FFF7AFFF23681A69074BF25002E0BE
:10B2E0002068FFF793FF0123AB6070BDFC100040A6
:10B2F00000100040282600200405000010B5002999
:10B3000003DB024B19600DF071FE10BD2C260020EE
:10B3100070B504001E0004AB1D7804F01FFB200074
:10B320000E4B40302360FEF717F9230001364C33F3
:10B33000013522001E701D730023E1214E32A364EB
:10B340006365138053809381D381013B2000636444
:10B350004902FFF7D3FF200070BDC04620980200CD
:10B3600030B5022080250C4B0C4AED00985080200F
:10B370005C59C000002CFAD0A124074DE4002951EB
:10B3800019580029FCD00020034988508021C900A9
:10B390005A58002AFCD030BD00E0014004050000EE
:10B3A000F0B501250F4C1048A44605518025ED004D
:10B3B0004459002CFCD080270024FF008025ED009C
:10B3C0009C4207DAA5004E595651C559002DFCD0B4
:10B3D0000134F3E70023624683504359002BFCD02D
:10B3E000F0BDC0460405000000E0014070B5012436
:10B3F00080260B4B0B48F6001C5080249D59E4001E
:10B40000002DFAD00A601A59002AFCD00021044A03
:10B4100011508021C9005A58002AFCD070BDC04686
:10B4200000E0014004050000F7B580277F053D6975
:10B430007C690822113C6C430600210068460EF02E
:10B4400087F8104B009A9A4219D000930023019379
:10B450007969300013396943FFF782FF019A009937
:10B4600030000BF0FCFB21003000FFF779FF796919
:10B47000AB081339694322003000FFF791FF0198B0
:10B48000FEBDC046FECA0000F0B50D00ABB00D9287
:10B4900000213022060012A80B930EF077F8280046
:10B4A0000EF0B4F8431C0C93102B00DDB6E00B9BA0
:10B4B000202B00D9B2E0290030000BF00CFC071E55
:10B4C00029D129000C9A12A80EF042F80D990B9A76
:10B4D00016A80EF03DF880235B051F695A693000FD
:10B4E000113A7A435D690D92FFF79EFF0D9B302262
:10B4F0000833002104001EA80F930EF047F829001E
:10B50000133979433000FFF72BFF0F9B0B93002378
:10B510000C930E9335E010300B9A0D990EF009F84C
:10B5200004003800FDF7F2FE002C7AD0C9E70B9931
:10B5300030221EA80EF00CF812A91EA80EF05CF81E
:10B54000002822D1384930002200109111940BF0CC
:10B5500086FB6A460B9B099315AB23CB23C223CBF7
:10B5600023C223CB23C23000149B1299139A0BF0F1
:10B570008AFB01230E930B9B30330B930C9B0133FF
:10B580000C930C9BA342D2DB10E06A460B9B099301
:10B5900021AB23CB23C223CB23C223CB23C2300036
:10B5A0001E991F9A209B0BF06EFBE4E7E5433021C8
:10B5B000ED1725404D430F9B5D190E9B002B1BD1B2
:10B5C000B81E05F07FF884422AD0174901343000B4
:10B5D0002200109111940BF042FB6A46099515ABBD
:10B5E00023CB23C223CB23C223CB23C23000129907
:10B5F000139A149B0BF047FB0D993000FFF7B0FE38
:10B6000080235B0559690C23634313390233794363
:10B610000D9A3000FFF7C4FE002402E0034C00E066
:10B62000034C20002BB0F0BDFECA000017FCFFFF4A
:10B6300013FCFFFF70B50400A280FA22002308006B
:10B640000C49920008312160A3716061E260A3603F
:10B65000638209490BF03FFB051E09D00100200061
:10B660001031022212300DF073FF2800FDF74EFE5C
:10B67000200070BD049A0200A0A7020030B5022588
:10B68000837987B004002B4204D1FDF73FFCA379F6
:10B690002B43A37120000BF062FB00282DD06B46DA
:10B6A000DD1C28000BF052FB2B78002B03D001A8E7
:10B6B0000BF04AFB0FE00122114B1A60114A53684C
:10B6C000002BFCD000220F4B5A600F4B01321B683D
:10B6D00001930B4B5A600322019BD9170A40D318E0
:10B6E0009B102382FDF7BCFEE368A1881818012394
:10B6F000A0601A0002A80AF02FFB002007B030BD9E
:10B7000000C00040FCC0004008C5004010B5040067
:10B71000054B0833036018300AF084FA2000143017
:10B720000AF080FA200010BD1C9A0200FF23F0B539
:10B730002B4C8DB0237000230500694600880093D0
:10B7400003F098FF002802D16B469B782370254EAA
:10B750003368DB68002B06D1002328881A00190003
:10B760000BF011FB3AE02378032BF5D81E4901A812
:10B77000FDF7BAFE336801A9DE6804A80AF0A7FA4B
:10B7800004A930000BF0D4FA060004A80AF04AFA23
:10B79000371E1ED031002022103104A80DF0D8FE33
:10B7A0003000FDF7B3FD217804ABC9005918082219
:10B7B00002A80DF0CDFE28880123082202A90BF073
:10B7C000E2FA0127002804D12888084A0C210BF04E
:10B7D000D8FA01A80AF026FA002FBDD00DB0F0BDAE
:10B7E0008820002030260020A8A70200FFFF0000CC
:10B7F00070B504008068002808D0064B1D8801F051
:10B80000F5F8036815221B6A290098472000FDF708
:10B810008BFB70BDC8280020F7B5040000250192FD
:10B82000C77FAF4254D966197078884202D1152972
:10B8300027D804E0605D2D180135EDB2F1E7012253
:10B840008A40264802421CD0D91901201F2943DC16
:10B85000E1193718B94210D80021C8B2834205D97E
:10B86000019A7018575C01318770F6E7625D9A188B
:10B870006255E27F9B18E37728E00878C8540139C5
:10B88000E8E7655D013DEDB2AB4209D10021C8B2E8
:10B8900083421BD9019A7018545C01318470F6E719
:10B8A000FF187F1B01201F2F16DC0227A81C7F42D8
:10B8B00036187F1BE07F2218964203D23078F0556D
:10B8C0000136F7E7451B023DE57701E0002003E084
:10B8D000019A20000BF0A3FAFEBDC046FC00200038
:10B8E000F0B585B001930AAB1E880BAB1B78451CE5
:10B8F00002930EAB1B78040003930B7817000370C0
:10B900004B8A10224382013128000DF021FE6B4644
:10B910009B88268363836B461B7B002623776B46BD
:10B9200001221B7A6761E683EB77A31CDA770C9B15
:10B930000C256362230020000D9A28331A705E7074
:10B940009E702A0031002C300DF020FE2000074BA5
:10B95000E663A3632A00310040300DF017FE20009B
:10B96000034B2665E36405B0F0BDC046A16D02003F
:10B97000936D020070B50D0001F038F80400036803
:10B98000002D02D15B69984708E09B689847854283
:10B9900004D2236820009B6898470500FA208000A5
:10B9A0006843024904F08EFEE08070BD7102000021
:10B9B000F0B507001600A1B002C704006B4918A833
:10B9C0001D000BF05EFA331E03D030000DF01EFE9A
:10B9D00083B2012204920022039202920232019267
:10B9E0000093320018A93800FFF77AFF230060495E
:10B9F000583318A807930BF044FA2B1E03D02800E5
:10BA00000DF004FE83B201220492002203920292FE
:10BA10000232019200932A0018A90798FFF760FFED
:10BA200023005449AC3318A808930BF02AFA269B3C
:10BA3000002B03D018000DF0E9FD83B2012204921F
:10BA4000002203920292023201920093269A18A9D0
:10BA50000898FFF745FF631CFF33474918A809936F
:10BA60000BF00FFA279B002B03D018000DF0CEFD32
:10BA700083B2012204920022601C039202920232DD
:10BA800001920093279A18A9FF30FFF729FF23009E
:10BA90005533FF33394918A809930BF0F2F9289B65
:10BAA000002B03D018000DF0B1FD83B201220492E7
:10BAB000002203920292023201920093289A18A95E
:10BAC0000998FFF70DFF2300A933FF332C4918A86D
:10BAD0000A930BF0D6F9299B002B03D018000DF028
:10BAE00095FD83B201220492002218AD03920292C6
:10BAF000023201920093299A29000A98FFF7F0FE7A
:10BB0000204B1B780B93002B2DD1079B129713937F
:10BB1000089B0DAF1493631CFF331593099B1A49BF
:10BB200016930A9B380017930BF0ABF91D2149209F
:10BB30003B7810222B707B8A12AE6B8206ABC91841
:10BB4000C0180DF005FD06232B756B469B8D2068F4
:10BB5000AB83AE6100F05AFF036829001B68984769
:10BB60000122084B1A70200021B0F0BD292A0000E4
:10BB7000242A0000252A0000272A0000262A000087
:10BB8000282A0000242900200A18000070B500258A
:10BB90000400094B8580083385710360C16014304F
:10BBA000FDF7DAFC20001830FDF7D6FC034BA5604A
:10BBB000256120001C6070BD1C9A02003026002008
:10BBC000FA21F0B591B0012305000222890008A8EE
:10BBD0000AF0C2F82D4C2368DB68002B4FD02C4BA9
:10BBE0001A780193032A4AD82A4904A82F88FDF716
:10BBF0007BFC236804A9DD6808A80AF068F808A996
:10BC000028000BF095F8060008A80AF00BF802AB24
:10BC10009D1D08232A002B8006A9073B38000BF046
:10BC2000B4F8002E08D031002022103108A80DF001
:10BC30008FFC3000FDF76AFB019B2A881B7806A960
:10BC4000DD0008AB5D1928000DF073FC002813D04F
:10BC5000082206A928000DF07BFC236804A9DD68F2
:10BC600005A80AF034F8202308AA05A928000BF03B
:10BC700065F805A809F0D6FF04A809F0D3FF2068ED
:10BC8000002801D00BF036F911B0F0BD30260020AD
:10BC900088200020A8A7020010B50C1E072C0BD886
:10BCA000806800F0A3FE054B195703685B6C98474A
:10BCB000002802D0024800E0024810BDB3A80200EC
:10BCC00016FCFFFF17FCFFFFF0B5A24C0D00A544CA
:10BCD000040007939AAB1B789F4909A80493069226
:10BCE000FDF702FC20002900183009F0F8FFC02001
:10BCF000800000F069FF0820FDF7E6FA0700002148
:10BD000000F03CFE15AD0021A7600C220EA80DF03E
:10BD10003DFC2B000EAA43CA43C3904B2900EB60A5
:10BD2000002338002B610CF0D9F8A06800F05EFE0B
:10BD30000C220021059028000DF028FC1420FDF7AE
:10BD4000C3FA874B2A0015930300C2CAC2C3854BAE
:10BD5000059EC3600023A43603613368002B00D026
:10BD600003613060A06800F051FE0C220021060043
:10BD700028000DF00BFC1420FDF7A6FA7A4B159362
:10BD8000030086CD86C3794BC36000230361336B08
:10BD9000002B00D003613063A06800F027FE15ADD2
:10BDA0000C220021060028000DF0F0FB1420FDF706
:10BDB0008BFA6F4B98361593030086CD86C36D4B77
:10BDC000C360002303613368002B00D003610125A9
:10BDD00004AB1B7C04AA2B43306008A92800137411
:10BDE0000AF0D5FFA06800F021FE036862495B6A93
:10BDF0009847A06800F01AFE036860499B6998475D
:10BE0000A06800F013FE00230268009316680499EE
:10BE10002A00B047049B002B0AD020000BF073F8D7
:10BE2000032805DDA06800F001FE0368DB68984781
:10BE30000EA80AF0EBFF2F2004ABC0180AF0E6FFB3
:10BE4000362004ABC0180AF0E1FF3D20042504AB06
:10BE5000C0180AF0DBFF0EAB0A93A06804AB5D7755
:10BE600000F0E4FD03680AA91B699847A06800F088
:10BE7000BDFD03680AA95B6D9847A06800F0B6FD98
:10BE800003680021DB6D9847A06800F0AFFD0368F0
:10BE900002219B6D984700212000FFF7FDFE18202E
:10BEA000FDF712FAA16800F0FBF9354B354A1B6823
:10BEB000A1680393344B15A81B680CAE0293334B57
:10BEC00000271B680193069B1B685B190093304B8E
:10BED00012681B68FFF76CFD3020FDF7F5F9079A33
:10BEE000A16800F09BFAA06800F080FD03683100B3
:10BEF0009B6A98470823A0683380DB187380B7805B
:10BF000000F074FD03683100DB6A98472900A068DF
:10BF10000AF0C3FF099A09219378A06852190AF020
:10BF2000CFFFA06800F062FDC8210771A068FFF78D
:10BF300021FD04AB1B7FBB4204D0A06800F056FD7E
:10BF40000AF095FF09A809F06DFE95239B009D441A
:10BF5000F0BDC046ACFDFFFFB4A70200AF6D02000C
:10BF6000C1BB0100BD6D02002DB70100CB6D020009
:10BF7000F96D0200D96D020095BF0100C9BF010033
:10BF800038260020342600200C2000203C260020EB
:10BF90000820002013B506226846FDF7B5FA094BC4
:10BFA0001C68002C0AD0694601A809F090FE200008
:10BFB00001A90AF0C9FF01A809F034FE684609F09A
:10BFC00031FE13BD30260020002373B501AE0C00F6
:10BFD00031000500019303F04DFB002802D1B27837
:10BFE000064B1A70064B1868002806D06142614162
:10BFF000044BC9B21D800AF0AFFF73BD882000203A
:10C0000030260020C8280020F0B5040097B0029127
:10C0100007A89A490592FDF767FA994908A8FDF71C
:10C0200063FA22000FAD2800183207A909F066FE56
:10C0300008AA290009A809F061FE280009F0F2FD0C
:10C0400090490AA8FDF750FAA06800F0CFFC0368F9
:10C050000DAE5B69984728000AF0D8FE332004AB88
:10C06000C0180AF0D3FE3A2004ABC0180AF0CEFE86
:10C07000412004ABC0180AF0C9FE04230D95002529
:10C08000A0687371357100F0B1FC036831005B6D1D
:10C090009847A06800F0AAFC036829009B6D9847A8
:10C0A000A06800F0A3FC070006000A371F22290041
:10C0B00038000DF06BFAFD7730000AF0CFFE062154
:10C0C000A0680AF0EAFE099A09219378A068043270
:10C0D0000AF0F6FEA06800F089FCC8210571A0688E
:10C0E000FFF748FCA06800F081FC0581A06800F023
:10C0F0007DFC0AF0BCFE0298FEF76EFC0AA90CA8B3
:10C1000009F0E5FD78220CA90298FEF72FFD0CA896
:10C1100009F088FD029920000AF029FF0423FF2777
:10C12000039504932369DB0735D557490BA8FDF721
:10C13000B1FA0BA90CA809F03FFE00220CA91300CC
:10C14000019200920298FEF7B5FC0CA809F027FEB8
:10C15000039B002B01D1043F00E00437282F03DDAF
:10C160000023FE2F06DC06E002980AF065FA0123A0
:10C17000002F00DC039305980AF03CF8002806D055
:10C18000012322699A431300049A134323610BA8E5
:10C1900009F005FE00252369049A13422AD0FF21E5
:10C1A0000298FEF709FD0025636902229B5E9D420D
:10C1B0001BDA200029B2143009F0B6FD002301007B
:10C1C00002981A007430FDF7B7FAC8208000FCF717
:10C1D00037FF02980AF030FAC820FCF731FF02223C
:10C1E0002369134201D10135DEE7FA208000FCF714
:10C1F00027FF002502222369134233D008261E4060
:10C200001AD022490BA8FDF745FA0BA90CA809F092
:10C21000D3FD00220CA90192009213000298FEF7B0
:10C2200049FC0CA809F0BBFD1948FCF709FF0BA855
:10C2300009F0B5FD174D15E017490BA8FDF72AFACF
:10C240000BA90CA809F0B8FD330032000CA9019627
:10C2500000960298FEF72EFC0CA809F0A0FD0BA892
:10C2600009F09DFD6420FCF7EBFE0C4B01359D426F
:10C2700000DC57E709F0A2FB54E7C046C2A7020062
:10C28000D2A70200D4A70200E2A7020027A802005A
:10C29000983A00008C0A000064A802008B0A000093
:10C2A000F0B505000024574BA9B008330360039193
:10C2B000A96021000BAB1A1901345170102CFAD16E
:10C2C000012251481A701A1B013C015D5174002C67
:10C2D000F9D19A7B597B12020A43290045270C3178
:10C2E000029125211B7813AE337002ABFF18C918D9
:10C2F0007282380010220DF02BF9029B02AA7361A2
:10C300000123338333770933FB771DAB1C706D2317
:10C310009B181C706E2321009B1874830C22F483DD
:10C320001EA81C7074620DF031F9384B0C22B363F7
:10C330002100F46323A80DF029F9354B0322F3649F
:10C34000462302A95B18DA77220034652C73059620
:10C3500006AF3B1901345A70102CFAD101232D4934
:10C360003B703B1B013C0A5D5A74002CF9D1112132
:10C370002520BB7B7A7B1B020BAE13433A7873827A
:10C3800002ABC9183270C01810220DF0E1F8012379
:10C390000398337505ABB361B48300F037FB0368D2
:10C3A00031001B68984713ABDB8BA868AB8200F0A9
:10C3B0002DFB03680094A98A029ADE680123B04726
:10C3C000A86800F023FB02901420FCF77DFF060014
:10C3D0000C2221000DF0DAF830000123346108222C
:10C3E00020C03900079306940DF0B2F80A4BF360B1
:10C3F000029B9B69002B00D033612800029B9E6149
:10C4000029B0F0BD349A0200CBA80200A16D020051
:10C41000936D0200BBA80200D16F0200F0B50026A8
:10C420000400764BDDB0083303608160C260868013
:10C4300086713200724947A80AF06AFE230014335D
:10C44000089301230493113301930E3B0093089A40
:10C45000330047A9039602961DA8FFF741FA320060
:10C46000684947A80AF054FE0123220004930733C9
:10C470000193043B15AF1032009347A93300039694
:10C48000029632A8FFF72CFA32005F4938000AF012
:10C490003FFE23001C3309930123049307330193C8
:10C4A000043B39000093099A33000396029647A88B
:10C4B000FFF716FA3200554938000AF029FE5420D9
:10C4C000FCF702FF230018330793012305000493B0
:10C4D000113301930E3B39000093079A3300039602
:10C4E0000296FFF7FDF92800494BA5620822EC628D
:10C4F0000AA930300A930B960DF02AF8454B042216
:10C50000AB63012329352B70268266822369099942
:10C51000E36107980DF01CF80422079908980DF0C4
:10C5200017F86622032304A95218D377BA225218A7
:10C53000D377872252005218D377A26AA685911C1E
:10C54000CB771DAB0C9332AB0D930F9247AB320000
:10C55000314910A80E930AF0DBFD3022312145202D
:10C5600004AB9B181B7812323B7004AB9B181B88E2
:10C57000323A7B8204ABC918C0180CF0E9FF0423DF
:10C580000CADA0683B75BD61BE8300F03FFA036847
:10C5900039001B689847822204AB9B181B885432D1
:10C5A000238404AB9B181B885432A38404AB9B18D0
:10C5B0001B88A068638400F029FA07001420FCF7A8
:10C5C00083FE05000C2231000CF0E0FF2800134B25
:10C5D0002E6108221093119610A910C00CF0B8FF1C
:10C5E0000F4BEB60BB69B34200D02B61BD612000F3
:10C5F000FCF78CFC20005DB0F0BDC046409A020004
:10C60000EBA802001BA902000BA90200DBA8020094
:10C61000E37002004F700200FBA802008DC601000B
:10C6200079700200F0B504000E00150085B000938B
:10C630000CAB1B881030019309F083FB26806580CA
:10C640001820FCF741FE070002AE33003D000AAAA5
:10C6500003CA03C3009B102208C5002128000CF068
:10C6600095FF3100082228000CF072FF064B0222D1
:10C670007B61200000230199A7600A43E360A28048
:10C680002362636205B0F0BDA3700200F0B50B89B0
:10C690008DB00593CB68060004934B88828C9A4238
:10C6A0000ED1049C059B049A1B1BD318032B3BDD66
:10C6B00062882188012308A809F04EFB0434F1E7C1
:10C6C000428C9A4230D1049C059B049A1B1BD318C0
:10C6D000032B29DD2388282006936388F7680793B6
:10C6E000124B089300230993FCF7EEFDC0236A4622
:10C6F0000500029308AB03CB03C233000699079AE7
:10C700002800FFF78FFF3B6829005B6838009847D7
:10C71000002807D0002D05D0280009F039FA28009C
:10C72000FCF7F4FD0434CFE70DB0F0BD63710200F7
:10C7300070B5040090B080680AF00EFD022301007D
:10C7400019401AD1A38D002B17D00D4B6A460493C4
:10C750001023E568A1850591029304AB41CB41C24A
:10C760000A00230006A8FFF75DFF2B6806A99B6857
:10C770002800984706A809F00BFA10B070BDC04613
:10C7800063710200002815D0006041608260C360C0
:10C79000046145618661C761444604624C46446257
:10C7A000544684625C46C462644604636E464663D3
:10C7B00074468463002A06D0C46B043C043A25689E
:10C7C0001560B442F9D18C6BA6464E6BB546002B72
:10C7D00006D0CC6B043C043B1D682560B442F9D103
:10C7E0000C6BA446CC6AA3468C6AA2464C6AA1464E
:10C7F0000C6AA046CF698E694D690C69CB688A685E
:10C80000086849687047006041608260C3600461E5
:10C8100045618661C761444604624C4644625446A1
:10C8200084625C46C462644604636E464663744632
:10C830008463C46B043C043925680D60B442F9D1AB
:10C84000C769866945690469704700604160826014
:10C85000C360046145618661C761444604624C4619
:10C860004462544684625C46C462644604636C4617
:10C8700044637446846304697047846BA646446BC2
:10C88000A546046BA446C46AA346846AA246446AC9
:10C89000A146046AA046C769866945690469C368F8
:10C8A000826800684168704710B5041E0DD00CF016
:10C8B000ADFE230001382018834208D21A7801788F
:10C8C0000138197042700133F6E7024800E0002099
:10C8D00010BDC04617FCFFFFF0B585B001900C1EDF
:10C8E00028D00027C217161A56407D1C63190293E0
:10C8F0003000013B0A21039304F054F8CB17C91808
:10C900005940039B3031197030000A2103F064FF55
:10C91000061E01D02F00E8E7019B002B03DA2D2330
:10C92000029ABD1C1370002620006655FFF7BCFF5D
:10C93000300000E0014805B0F0BDC04617FCFFFF25
:10C9400070B5002403780B4A4533FF339B009C509D
:10C95000050003F019FC0123AB70074EA3599D425B
:10C9600004D12800FCF7D2FC0023A35104340C2C82
:10C97000F3D170BD0060004040260020002370B558
:10C9800004000160436099420AD1064D2B68002BD8
:10C9900002D10CF02AF8286023689B00EB586360F2
:10C9A000200070BD5826002070B500280DD10C4C19
:10C9B0002668002E07D108300CF091FD05003100EB
:10C9C000FFF7DCFF2560206808E0012205490648E2
:10C9D0000B68134002D1026043600A6070BDC0461C
:10C9E0004C2600205C26002050260020436810B50D
:10C9F0000400002B02D104480CF0BFFB6068036800
:10CA00001B69984710BDC0462BA90200436810B5AA
:10CA10000400002B02D104480CF0AFFB60680368EF
:10CA20009B69984710BDC0462BA90200436810B50A
:10CA30000400002B02D104480CF09FFB60680368DF
:10CA40005B6A984710BDC0462BA90200F0B58DB0B7
:10CA5000050002F04FFC002000F0EAFD036807002B
:10CA60001B6998473B6804009B69380098473B68FE
:10CA700006005B6A380098470300288810380B28A6
:10CA800000D998E003F014FE063D9797975A9797C0
:10CA900097619773AF88200039000CF055F9220098
:10CAA0006B7B583201931378A8791900022319433C
:10CAB00006AB11701F80012306AA9370D07013007B
:10CAC0006A461279E91D9A722B000622163307A8CE
:10CAD0000B930CF03DFD29000B2006AB06220E3116
:10CAE000C0180CF035FD94346368A360A06800287A
:10CAF00061D0C36806A99847A368002BF4D01B69CE
:10CB0000F3E720002F49AF880CF01EF92200022025
:10CB100058321378A9798343137006AB1F8099703C
:10CB2000A0346368A360A068002844D0C36806A945
:10CB30009847A368002BF4D01B69F3E75B69A91D34
:10CB4000002B38D0A888984735E0636EAF79002B6A
:10CB500031D0A366A06E00282DD0C3683900984755
:10CB6000A36E002B01D1636EF3E71B69F1E701228D
:10CB70000D27AB7BE91D1A4001925A07920FDB0883
:10CB8000029206A80622EF5704930CF0E1FC6A46D5
:10CB9000127906ABDA716A46127A9F711A726A4686
:10CBA000127C20005A722B008C340F330993803092
:10CBB000236806A99847290030000BF0BDFA0DB094
:10CBC000F0BDC046FFFF00000723D72802D9024B63
:10CBD0001860002318007047602600201FB5A323AB
:10CBE0008022DB00D205D3580820DB0700D40530B3
:10CBF0001E4B48221E4902F0BBFD00280AD080B21D
:10CC0000002807D1BFF34F8F1A4A1B4BDA60BFF3DE
:10CC10004F8FFEE702AC0822002120000CF0B6FC8A
:10CC200001232370154B20001B6863600BF075F91E
:10CC3000002801D0072017E068460BF06CF90028A7
:10CC4000F8D169460BF065F90028F3D10C4802F0E1
:10CC5000BFFD80B2002807D10A4802F0C3FD80B2B0
:10CC6000002801D100F068FD04B010BD297F02004A
:10CC7000642600200400FA0500ED00E06026002094
:10CC80004DCA0100217F020080B2002807D1BFF306
:10CC90004F8F034A034BDA60BFF34F8FFEE77047B5
:10CCA0000400FA0500ED00E013B504680093A468E1
:10CCB00013000A000149A04716BDC046FFFF00004F
:10CCC00037B506AC257804680195009324691300F4
:10CCD0000A000149A0473EBDFFFF0000F0B589B042
:10CCE000019307000FAB0D0016000021082202A8D7
:10CCF0001C780CF04BFC0EAB1B8802AA1380019B26
:10CD00000393002C06D0310028000BF015F9002801
:10CD100041D154E03B007A79F833A2423DD908333F
:10CD2000190008390988B14208D130222034A40002
:10CD3000E3590133DB7F134202D12EE00134ECE7EB
:10CD400002220020DB06DB0F04ACD31AA370019B88
:10CD50002680E3600EABA3601A4BA0809D4207D1F2
:10CD600000F066FC03681B6998470BF0F0FF0500B4
:10CD7000210028000BF0E4F880B200281FD0112811
:10CD80001CD013D8082817D002AA310028000BF0B5
:10CD9000D3F8002812D0032011E002AA31002800A5
:10CDA0000BF0CAF80028F6D1063008E0064B98428E
:10CDB00004D0064B9842E7D1062000E0052009B0D8
:10CDC000F0BDC046FFFF000003300000013400004A
:10CDD000F0B5050097B008002E240B9100F06EF915
:10CDE00004ABE4181090220010A901200BF0A2F867
:10CDF000002801D00320D4E023880B9A0A90938363
:10CE00000B9B0A9A1B7D934250D96B791D2B01D93C
:10CE10000720C6E00B9B9B690C930A9B0C9A9B0016
:10CE20009C586369002B46D1638B002B43D1631C54
:10CE3000DB7F022B3FD134E06979A31C1F31C9008D
:10CE40006918621CDB7FD27F089121002A310978A2
:10CE50000020079121002931097806910D9905914B
:10CE60000C990491217F0391218B0291618B019197
:10CE70006169009110A90BF098FA0028BAD16B797A
:10CE800007001A00203292001F335451DB005B5B15
:10CE9000E3836B7901336B71230028331B78BB422A
:10CEA00037D80A980130C3B20A93A9E72B7900203A
:10CEB00001332B7175E0200000F000F9002610907E
:10CEC0000D960C96230028331B78B342B4D9626ABE
:10CED000B3009F58342204AB9B1800221A70002321
:10CEE000002111AAD21801335170102BF8D146221B
:10CEF00004AB9B182C4A11A938001A800BF0B8F823
:10CF0000002803D07B690C937B8B0D93731CDEB2DE
:10CF1000D8E78E239B00EB5C132B00D978E7626A7D
:10CF2000BB009E580023180011A90B70CA180133CA
:10CF30005070102BFAD11C4B30004B820BF098F83C
:10CF40000C9000282AD1300000F0B8F88E22920010
:10CF5000AA5C738B1D32FF325200AA180232029271
:10CF6000327F10900192328B10A9009272690C9856
:10CF70000BF0F8FA002800D03CE78E238E219B00AE
:10CF8000EA5C8900531CDBB26B541D337A32FF33E9
:10CF900092005B005651EB185B88F383781CC7B294
:10CFA0007AE717B0F0BDC04601290000F0B50400D3
:10CFB00087B0E36B2364266C002E08D0F368210051
:10CFC00030009847236C002BF3D01B69F2E7200058
:10CFD0003C300BF010F82000267166710C300BF01D
:10CFE0000AF8200018300BF006F8200024300BF06F
:10CFF00002F8200001AD30300AF0FDFF31000C22B4
:10D0000028000CF0C3FA23002A00443383CA83C3E8
:10D010000F4B3100236566650C2228000CF0B6FA30
:10D0200023002A00583383CA83C3094B0C2263664A
:10D030003100A66628000CF0A9FA23006C3307CD56
:10D0400007C33000024BE667A36707B0F0BDC046D8
:10D05000837F020070B50500FFF7A8FF041E1CD1F6
:10D0600028007822210080300CF090FA2800E93066
:10D0700050222100FF300CF089FA280008222100FC
:10D08000F8300CF083FA064B2822E81821000CF047
:10D090007DFA8E239B00EC5400E00624200070BD36
:10D0A0003A0200000B68002B01D1036002E0024B42
:10D0B00003600023436070471F7F0200F0B5438A7E
:10D0C00087B00293037804000126002B3ED0244B46
:10D0D00024491A680393112301929C460022851962
:10D0E000019B934214D0674600235743CF19981EE3
:10D0F000012803D9FE5CE85C864207D10133102B7E
:10D10000F5D111235A4389180E7C1FE00132E7E75D
:10D1100028000BF033F9237807000600002B01D11B
:10D1200012342500019B042B10D011245C430D4BBD
:10D1300010221C19290020000CF00AFA0023A37009
:10D14000E370019B039A01332774136005AB9E7053
:10D150005888029B00040343180007B0F0BDC04686
:10D16000AC2600202529002000487047FFFF000062
:10D17000F0B597B00593036807AD1B68049103935E
:10D1800011002B00060091C991C30024D36821002F
:10D190000C220CA8EB602C610CF0F8F921000B4B71
:10D1A00010940F9311AB1C701A1901345170102C8C
:10D1B000FAD100225A820193059B2A000093049918
:10D1C0000CAB3000039CA04717B0F0BDD386020023
:10D1D000FC3070B5046C0500002C0DD124200CF03F
:10D1E0007EF9064B44608361054B8460C460046132
:10D1F0004461C46103602864286C70BD5C9B0200BC
:10D20000449C0200FC3070B5C56B0600002D16D1A1
:10D2100034200CF064F90400342229000CF0B6F933
:10D22000084BA5606360084B65612361074B25626D
:10D23000E361074BE562A362064BF4632360F06B86
:10D2400070BDC0468C9B02007C9B0200EC9B0200E0
:10D25000FC9B02000C9C02007FB503791548002B53
:10D2600026D0154D154C2B782000002B20D102AE76
:10D2700030000BF012FA002814D17388592B11D109
:10D280003378B288D91F012902D800920C4A01E0F4
:10D2900000920C4A2021200007F00CFE01232B7085
:10D2A000200005E02022084920000CF0B6F9F7E73D
:10D2B00004B070BD4EA90200692900206A2900202F
:10D2C00068A9020085A90200AAA9020010B50400FD
:10D2D000024B08C00BF06CFA200010BDFC9B020052
:10D2E00010B50400024B08C00BF062FA200010BD1C
:10D2F0009C9B020010B50400024B08C00BF058FACA
:10D30000200010BD8C9B020010B50400024B08C029
:10D310000BF04EFA200010BD7C9B020010B50400FB
:10D32000024B08C00BF044FA200010BD6C9B0200B9
:10D3300010B50400024B08C00BF03AFA200010BDF3
:10D34000AC9B020010B50400024B08C00BF030FA91
:10D35000200010BD5C9B020010B50400024B08C009
:10D360000BF026FA200010BDB09A020010B50400A0
:10D37000024B08C00BF01CFA200010BDA09A02005E
:10D3800010B50400024B08C00BF012FA200010BDCB
:10D39000909A020010B50400024B08C00BF008FA86
:10D3A000200010BDC09A020010B50400024B08C056
:10D3B0000BF0FEF9200010BDEC9B0200FC3070B5B4
:10D3C000046C0500002C0DD124200CF088F8064BCD
:10D3D00044608361054B8460C46004614461C4613E
:10D3E00003602864286C70BD5C9B0200449C0200B2
:10D3F000104B10B5083303600F4B0400C36080234B
:10D400000E4A5B00C250C018FDF7BEF920000C4B5D
:10D41000B830E360FFF7BEFF2000AC30FFF79CFFA1
:10D420002000A030FFF7A2FF20006C30FFF7A8FF1C
:10D43000200010BD709C0200B89C0200E09D02001C
:10D44000D09A0200F0B50500040087B0AC356B68D7
:10D45000AB60AE68002E08D0F3682100300098471A
:10D46000AB68002BF3D01B69F2E72000B0300BF063
:10D470009FF92200FC235832117820000B401370D2
:10D4800023005C331E700A300BF0A6FA2000343003
:10D490000BF0A2FA200064300BF08AF920009830DB
:10D4A0000BF086F9200001ADA4300BF081F93100BA
:10D4B0000C2228000CF06AF823002A006C3383CA7F
:10D4C00083C3094BE667A3670C22310028000CF0E8
:10D4D0005DF82300803307CD07C33000034A903442
:10D4E0001A60266007B0F0BDC5860200B78602004C
:10D4F000454AF0B50600C260A022444B16360833F8
:10D5000003600100002342820400320085B00371F1
:10D510008360037483823531137001320025914298
:10D52000FAD1802780222000D201BF001100F577B8
:10D5300037842B000095383000F0D4FB2300210005
:10D54000403303931A002B005F3113700132002522
:10D550008A42FAD1039B2200DD77230060331F80CB
:10D56000FC236432117820000B40137023006833D1
:10D570001D70274B2900E36625670C2278300CF0DC
:10D5800005F82300270088331D60224B0837FB670E
:10D59000843729000C2238000BF0F8FF1E4B1F4A7D
:10D5A000FB602300A0333D611A601D4A5D60DA60B4
:10D5B0001C4A1D619A61DD6130000BF00DFA039881
:10D5C0000BF00AFA184B601CE3602300C4331D7093
:10D5D0005D709D70FF3002F00BFA8C235B00E5500C
:10D5E00023001933FF335D618023104A5B00E25052
:10D5F000230001222000FE3352425A86023B9D63E3
:10D60000DD631D6405B0F0BDD09A0200709C02007D
:10D61000909A0200C5860200B7860200A09A020016
:10D62000B09A0200C09A0200B89C0200E09D02007D
:10D6300070B5074C2368002B07D1A02040000BF0E9
:10D640004EFF0500FFF754FF2560206870BDC046FF
:10D65000B026002070B50C220D00002104000BF054
:10D6600095FF00232361024B25602000E36070BD1D
:10D67000837F020070B500250400264B057103600E
:10D68000254B45718360254BC5604361244B856103
:10D690000362244B4562C362234B05638363C56306
:10D6A00029004430FFF7D6FF200029005830FFF74B
:10D6B000D1FF200029006C30FFF7CCFF1B4B22006C
:10D6C00023602300F832803320C39342FCD126002C
:10D6D0001D00E936FF3628000822002108350BF02E
:10D6E00055FFAE42F7D18E22330000209200A118E0
:10D6F00001C300229942FBD18E239B00E2540C49C6
:10D700000C4B6118E3181A8002339942FBD12000B8
:10D7100070BDC046BC9B02006C9B02007C9B02005B
:10D720008C9B02009C9B0200AC9B0200609A020052
:10D73000620200003A0200001FB502AC082200217C
:10D7400020000BF023FF282323806933FF336380FD
:10D75000E380803B01A8FF3B05220C4903700BF0DE
:10D760006FF980B200280FD1802080000BF064F99F
:10D7700080B2002808D120000BF060F980B20028A8
:10D7800002D10BF057F980B204B010BDB2A902006B
:10D79000024B0B60092313607047C046B8A9020012
:10D7A00010B504000020FFF743FF03681B6998478A
:10D7B0000300F3331C7086235B00C050030000217C
:10D7C000044AFC335A61044A99615A62F4300BF0FE
:10D7D00033FC10BD0B8C02001D8C0200012110B522
:10D7E000044A080002F048F8031E00D00B2318007A
:10D7F00010BDC046A1D70100F0B593B00190002044
:10D800000C00FFF715FF03685B6A984700F088F982
:10D8100006AB00280DD000221A7105AA0692082234
:10D8200018001A730AAA9A6000F044FA002802D07D
:10D8300052E01871187300231F0023732371019B9A
:10D84000BA331B78BB4246D907237B43019AD218CF
:10D85000BB321278022A31D1002506AE337BAB42AF
:10D8600036D907207843AB000293019BAA00181811
:10D87000089BBB3099580BF071FA00281BD0B36895
:10D88000AA009A58237BA1689B005A50237B01333E
:10D890002373337B5A1E954208D01049B2685B1837
:10D8A0009B009B5803930399029BD15006AA137BBC
:10D8B000013B13730CE00135EDB2CEE701992279FB
:10D8C000CB182168BB339200535023790133237165
:10D8D0007B1CDFB2B3E7002013B0F0BDFFFFFF3FBA
:10D8E000F0B59DB01F006B4605001A70581C06224B
:10D8F000229E02AC0BF02CFE002F07D03B88238029
:10D900007B886380BB88A380FB8806E0322323806A
:10D91000DB186380F533A780FF33E3800CAB04A9E9
:10D92000049314AB8B602F000023B9370B710B737A
:10D930003B78002B17D101203B78022708A9034030
:10D940005A000B78BB4304AF4F601343002E10D036
:10D95000B2798343024013430B7033880B81738881
:10D960004B81B38811E02800FFF746FF0028E2D082
:10D9700029E02A00323212788343024013430B70AD
:10D98000AB8D0B81EB8D4B812B8E220068468B81FA
:10D990000BF074F803000020834214D00630082BEB
:10D9A00011D005D80130042B0DD0834208D109E0F5
:10D9B0000520112B07D0054A934203D0102B01D02C
:10D9C0000B2000E004201DB0F0BDC0460232000074
:10D9D000F0B50A7804009BB00D000220012A42D065
:10D9E0004B88032A04D1A03B10009BB21F4A03E0DE
:10D9F0000320203B1E4A9BB2934234D8AA881D4B79
:10DA000003209A422FD80AAB009312AB02936A46C6
:10DA10000023260013711373B8363378002B05D01A
:10DA200069462000FFF7E8FE00281CD104AF182249
:10DA3000002138000BF0AAFD2B7838003B703378BA
:10DA40003B726B46FB606B883B82AB887B820AF043
:10DA5000FFFF02000320002A05D1012110005834E5
:10DA600023780B4323701BB0F0BDC046603F00001D
:10DA7000E03F0000FF3F000070B500200C00FFF702
:10DA8000D7FD03685B6A98472378142B17D002D818
:10DA9000132B05D03FE0152B18D0222B35D03AE0C0
:10DAA00064680122A37819005D0811402A40456886
:10DAB000DB065B0F002D2ED02088A8472BE0836863
:10DAC000002B28D06268917810881CE06468A278E6
:10DAD00013091207120F012A02D0022A08D00DE002
