:020000021000EC
:108000000040002099FB0100D5FB0100D7FB0100D7
:108010000000000000000000000000000000000060
:10802000000000000000000000000000D9FB01007B
:108030000000000000000000DBFB0100DDFB010090
:10804000DFFB01009DB20100FD030200DFFB010028
:10805000DFFB010000000000A1FC0100DFFB0100CC
:10806000DFFB01007D06020051010200DFFB010081
:10807000DFFB0100DFFB0100DFFB0100DFFB010094
:10808000DFFB0100DFFB0100DFFB0100DFFB010084
:10809000DFFB010039EC010015EC0100DFFB010002
:1080A000DFFB0100DFFB010000000000000000001A
:1080B00000000000000000000000000000000000C0
:1080C00010B5064C2378002B07D1054B002B02D0AE
:1080D000044800E000BF0123237010BDB820002039
:1080E0000000000038AF0200084B10B5002B03D091
:1080F0000749084800E000BF07480368002B00D18B
:1081000010BD064B002BFBD09847F9E7000000009C
:10811000BC20002038AF0200AC200020000000008E
:10812000164B002B00D1144B9D46402292029A1A06
:10813000924600218B460F461348144A121A11F03A
:10814000B0FB0F4B002B00D098470E4B002B00D0FC
:1081500098470020002104000D000D48002802D09F
:108160000C4800E000BF0CF099FE2000290011F03F
:108170009BF80CF07DFEC046000008000040002087
:108180000000000000000000B0200020F0290020C6
:10819000000000000000000010B50400034B036065
:1081A00040300DF037FE200010BDC046389B020065
:1081B0001FB50D4A13685C1C14600C4A9B00985054
:1081C00003A80DF0FCFE0022094801920092130062
:1081D00003A9EC3002F072FC03A80DF0E3FEFA20D4
:1081E000400000F031FF1FBD80250020D424002076
:1081F000D8200020F0B587B006000F0005A80C9924
:108200001D0003920DF0DBFE154C00222000130030
:108210000192009205A9EC3002F050FC05A80DF087
:10822000C1FEDF239B00E018390002F07DFF9F2391
:108230009B00E018310002F077FFCF239B00E0188D
:10824000290002F071FFBF239B00E018039902F0A0
:108250006BFFFA20800000F0F7FE07B0F0BDC046CB
:10826000D8200020F0B5002685B0534B03AC1B6826
:108270009E4200DB90E0514BB200D05802380528F6
:108280007AD808F00DFB03790A26415D4C4920009D
:108290000DF095FE0094012374E00025494F200065
:1082A00039000DF08CFE48482B002A002100019572
:1082B0000095EC3002F002FC20000DF073FE390056
:1082C00020000DF07CFE012200942B0029001000FC
:1082D0005BE000253D4F200039000DF070FE3A486C
:1082E0002B002A00210001950095EC3002F0E6FBFE
:1082F00020000DF057FE390020000DF060FE012334
:1083000000942A00190019E00025314F200039009F
:108310000DF055FE2C482B002A00210001950095F8
:10832000EC3002F0CBFB20000DF03CFE39002000C9
:108330000DF045FE2B00012229000094280024E0C6
:108340000025244F200039000DF039FE1E482B0077
:108350002A00210001950095EC3002F0AFFB2000CF
:108360000DF020FE390020000DF029FE00942B00B6
:108370002A002900012008E0174920000DF01FFE07
:10838000002300941A0019001800FFF733FF2000A3
:108390000DF008FE013668E7104920000DF00FFED1
:1083A0000023009418001A001900FFF723FF200093
:1083B0000DF0F8FD05B0F0BD80250020D42400208C
:1083C000D024002074250020D8200020C8240020BC
:1083D00078250020D420002084250020CC240020F3
:1083E000F0B5584889B000F049FA03230122092169
:1083F00004A802F04BFE04A802F0CAFE010004002B
:1084000003A80DF023FD4F4D02222E1D03A93000BD
:108410000EF059FD03A80DF0FDFC0A2103A80DF094
:1084200022FD022203A930000EF04DFD03A80DF03D
:10843000F1FC454F3B68282B1CD100264349EC3505
:1084400003A80DF0BCFD3300320003A9019600968D
:10845000280002F033FB03A80DF0A4FDFFF702FF94
:10846000FA203B688000584300F0EEFD28003E6093
:108470000EF0E5F9102C46D0324D0CDC062C50D015
:108480000B2C47D0012C58D1314903A80DF097FD92
:1084900003A907204BE0182C2ED01C2C19D0142C2B
:1084A0004BD12C4903A80DF08AFD0024280023009D
:1084B000220003A901940094EC3002F0FFFA03A813
:1084C0000DF070FDFA20204B80001C6000F0BCFD18
:1084D00091E71E4903A80DF072FD002228000192C9
:1084E0000092130003A9EC3002F0E8FA03A80DF0A3
:1084F00059FDFFF7B7FE7EE7174903A80DF05FFDB2
:1085000003A9022013E0154903A80DF058FD03A9A3
:1085100004200CE0124903A80DF051FD03A9052029
:1085200005E0104903A80DF04AFD200003A9FFF75C
:108530003FFE03A80DF036FD5DE72800EC300EF09D
:108540007EF958E7D82000208025002088250020CB
:10855000D42000207C250020D02400207425002079
:10856000C82400207825002070B5334D280000F085
:10857000C5F8324C32492200280011F030F9314E52
:108580003149300001F08AF8304D220029003000D6
:1085900011F025F92E4E2F49300001F07FF822000E
:1085A0002900300011F01BF92B4E2C49300001F04E
:1085B00075F822002900300011F011F9284E2949E0
:1085C000300001F06BF822002900300011F007F9AB
:1085D000254E2649300001F061F8220029003000C4
:1085E00011F0FDF8224E2349300001F057F8220027
:1085F0002900300011F0F3F81F4E2049300001F03F
:108600004DF822002900300011F0E9F81C4E1D49F8
:10861000300001F043F822002900300011F0DFF8AB
:10862000194E1A49300001F039F8290030002200B3
:1086300011F0D5F870BDC046D820002000200020E1
:1086400091860100842500204CA50200A55F020050
:1086500074250020A7A50200C824002002A602005D
:10866000D42000205DA6020078250020B8A60200D4
:108670008825002013A70200D02400206EA7020046
:108680007C250020C9A70200CC24002024A80200D9
:10869000EB23194A9B0010B5C25018330400C018D0
:1086A0000DF0B8FBF0239B00E0180DF0B3FB842322
:1086B0009B00E01801F0BAFB2000C530FF3001F04C
:1086C000EBF820008D30FF3001F006FB2000653014
:1086D000FF3001F001FB2000EC3002F067F82000D1
:1086E000D03002F0BBFB2000643007F0ADF9201D54
:1086F000FFF752FD200010BD3C9D02001423F0B591
:10870000040095B0192200931821043002F014FEE1
:10871000230027006433B43713211800119307F0A6
:108720009FF938000EF00EFC2300B83300221E2102
:10873000180010930EF088F82000D03002F0AEFB45
:108740002300EC334A4A06211800129302F052F833
:1087500020000026012365301A0000961121FF3009
:1087600001F036FB20008D300096012302221A21F1
:10877000FF3001F02DFB25002000C535B530FF3559
:108780001A2302220121FF3002F048FC1099042331
:108790003A22280001F010F984239B00E318139378
:1087A00005230193183300932A003B001099139876
:1087B00001F056FD96239B00E0182A00129B1399A6
:1087C00001F02CFF99239B00E01839001C2203F0D4
:1087D0002BF89F239B00E01819230F93013B0E9366
:1087E000013B0D93013B0C93013B0B93013B0A931F
:1087F000013B0993013B0893013B0793013B06931F
:10880000013B0593013B0493013B0393013B02931E
:10881000013B0193013B082200930721013B0EF02D
:108820001BF8EB239B00E018390003F0A9FAF223B0
:108830009B00E0181D2102F0CBFCFB239B00E650BF
:1088400011982670032110F005FD2300220020005E
:1088500008499C33A0321C6011605660064A803083
:108860005A610221012207F0CDFA200015B0F0BDB7
:10887000409B0200635A02004F5A02000123F0B5E8
:10888000067889B004001E4000D0B0E0FD208005CD
:1088900000F0E6FC2300D0331800029300F0B6FA93
:1088A00000F0A6F9282000F013FD050010300DF0AF
:1088B0004BFB504B6E802B80182000F009FD070009
:1088C0004D4B10C7039010223100380006930796D5
:1088D00010F0E7FF082206A9380010F0C4FF474B4C
:1088E000039A290053611223AA60EE60AB802E62C6
:1088F0006E62029802F03EFA002805D028000DF0C2
:108900003FFA280000F006FD01222378642013437B
:10891000237000F099FB002527006537FF373800EA
:108920000DF06BFD00283DD020008D30FF300DF0A4
:1089300064FD002836D0092D34DC6420013500F0B8
:1089400083FB0A2DE8D1FB262D492E48B60000F006
:108950005BFCA359002B1CD100F062F8010004A8B5
:1089600000F0C6FD05A80DF0EEF8EB200123800015
:1089700005AA04A900932018029B03F09FFA05A8FA
:108980000DF048FA04A80DF045FAED239B00E358DA
:10899000A351EB2321009B003A00EC31E01803F0D7
:1089A0002DFCB9E7FB2616491648B60000F02CFC52
:1089B000A559002D1BD100F033F8010004A800F0E8
:1089C00097FD05A80DF0BFF8EB239B00E01805AA62
:1089D000029B04A9009503F071FA05A80DF01AFA9C
:1089E00004A80DF017FAED239B00E358A35109B03A
:1089F000F0BDC046FD030000D75A0200975A02009E
:108A000000200020001C0020BFF34F8F024A034BC0
:108A1000DA60BFF34F8FFEE70400FA0500ED00E0D7
:108A2000F0B58DB005AF19221549380010F01BFFC5
:108A30000022144B05245A7180225205566E0122E1
:108A400025000194029203930199300007F0B8FFCA
:108A50000800029907F02EFF019B03996B430193D5
:108A6000029B361A6B430293631E2C1B6C433C190A
:108A7000225C1C1ECA54E7D108000DB0F0BDC046F0
:108A8000B5A802001C290020F0B595B018220021DD
:108A900006000EA810F005FF13210EA810F021FD0E
:108AA00003210EA810F0B3FD01224A4B00921B686F
:108AB000002B01D0DBB200930123474A002109A813
:108AC00007F010FB454B9E4200D9002672B6444B7E
:108AD0001022002105A81D6810F0E3FE414B64211F
:108AE00030000593052407F06FFF604350302818CD
:108AF00006900A21300007F067FF0A2108F04AF8C3
:108B0000614350316918079130000A2108F042F89A
:108B10004C43210050316C18802608940024B60183
:108B2000009B002B3CD004AD0027032C02D18026F3
:108B30000024B6016B682C4A029363000133D318FA
:108B4000002201921021581E0078014103911978EA
:108B50008C4660460299095C0398014204D00120CA
:108B6000904001990143019101320633092AE9D16C
:108B7000019B2A68D9431D4B09011940029B93426E
:108B800003D1312F01DC002100E0314309A810F0AE
:108B9000F9FDFA23139A0F99DB001068014201D105
:108BA000FFF732FF013B002BF7D1FA2301340137E5
:108BB0007600E4B25B009F42B7D1043508ABAB420C
:108BC000B2D1044B1B68002BAAD0009B013BDBB247
:108BD0000093A5E78C250020F0FF0000E7030000CC
:108BE0000420002004A90200CEA80200F01F00000B
:108BF000F8B50023144C23600CF0C6FF25000028B4
:108C000008D0042120000CF0BBFF00281BD00F4B24
:108C1000236018E00122A12704210D4B0D4E1A609C
:108C20002368FF000B4A7060944662465268084C05
:108C3000002AFAD0E2591B02013913430029F1D16D
:108C40002B6001236360F8BD90250020ED5EBC0B16
:108C500000D00040FCD00040F0B585B01F000AAB4A
:108C60001B880600029115000393002F1BD02820BB
:108C700000F02EFB6B4604001989039BAAB20093F7
:108C80003B000DF066F8336821005B6830009847C0
:108C900000280BD0002C08D020000DF071F8200027
:108CA00000F038FB01E0024800E0024805B0F0BDEA
:108CB00017FCFFFF16FCFFFF0B4B70B51C68002C68
:108CC00011D0656D00F0D0FBA36C002903D1834265
:108CD00001D92C00F3E720000CF089FF03492000A4
:108CE0000CF072FFF5E770BDB8250020C02500200C
:108CF000F0B5040093B00793230C0293294B049022
:108D00001C68294B05911E68069285B20027002E2B
:108D100046D0002C30D0636D24480393A36C9AB2E4
:108D20001B0C99B2854216D12148824213D1002BE7
:108D300004D0029B994201D0039CEAE7002F01D0A6
:108D40000127F9E720000CF052FF1A4920000CF02F
:108D50003BFF0137F0E7002A01D09542ECD1002B10
:108D600002D0029B9942E7D120000CF040FF11494C
:108D700020000CF029FFDFE70F4BEB18012B0FD978
:108D80001023029A009329000C4B08A80CF0E1FF75
:108D9000336808A99B683000984708A80CF0F0FFDA
:108DA00013B0F0BDB4250020C4250020FE03000050
:108DB000FF030000C025002002FCFFFFF18C010032
:108DC00010B572B60B4B1C68002C03D020000CF0C1
:108DD0000EFF08E062B65C2000F07AFA5C22002107
:108DE000040010F05EFD0023E364034B2000E36306
:108DF00010BDC0469425002000400020024B18788A
:108E0000012318407047C04622290020F7B506000C
:108E1000FFF7F4FF051E33D11A4C2660FFF7D0FF91
:108E2000194B1A4918600CF0CFFEFFF7C9FF184B19
:108E30001860184B4363184B8363206800280ED0DA
:108E4000C027164E2A00330015490097FFF704FF8C
:108E5000009733002A0013492068FFF7FDFE0C201D
:108E600000F036FA0023838083710F4B03600F4BB1
:108E7000836000F011FB01210D4A13780B4313703E
:108E8000F7BDC046C425002098250020C02500203D
:108E9000C8250020FC3F0020B55C0200F18C0100D9
:108EA000FF030000FE030000609B0200B98C01007C
:108EB00022290020F7B506000D00170001930028B5
:108EC00001D1002015E00029FBD0FFF779FF041E37
:108ED000F7D0084B019A4363066045608760064BF4
:108EE000002A00D0054B2000A36305490CF06CFE5E
:108EF0002000FEBDFC3F00207F5C02009D5C020064
:108F0000C0250020024B1868434258417047C046B4
:108F1000C0250020002310B504499C006258002A97
:108F200001D00133F9E76050100010BD9C250020EE
:108F3000002310B5044A99008C58844201D00133B3
:108F4000F9E70020885010BD9C25002010B50024B2
:108F5000074BE058002802D003685B689847043448
:108F6000182CF5D1034B1B68002B00D120BF10BD7E
:108F70009C250020C0250020F8B5FFF73FFF002802
:108F800055D02B4E34683500E36CDA0717D502252F
:108F90002B43E3640423274F3868C26C1343C36434
:108FA000636BC3630CF049FE3868416C03F025FD28
:108FB0003068C36C2B423AD003F059FD37E01E4FA6
:108FC0001E4E3A68002A01D1326808E0216DB9428C
:108FD00005D1616D002900D11100296000E02A60EF
:108FE0002A6831688A4208D11B0706D52C60FFF732
:108FF000ADFF3B68002BFAD02B6029688C4216D05D
:109000003368994204D10E4B4B630E4B8B6305E0E2
:109010009C4203D100224B6C100006E020000CF0B3
:109020000CFE20002968626C4B6C03F0A5FCF8BDB7
:1090300098250020BC250020C0250020C825002040
:10904000FC3F0020B55C020070B50500FFF7D6FEBE
:10905000002803D1280010F0D3FA18E00C4B1C684C
:10906000E36CDB0706D5FFF7ABFE0A4B1860002860
:1090700000D0040000F0F8F92818A06420000CF0DB
:10908000B6FD054920000CF09FFDFFF775FF70BD90
:1090900098250020BC250020B8250020F0B51E4BE7
:1090A00085B01C681D4B06001A680F000393002A48
:1090B00003D0FFF7A3FE002801D119482AE0E36C92
:1090C000DB070ED5FFF77CFE164B051E186008D097
:1090D0000CF08DFD144928000CF076FD2C00FFF7F4
:1090E0004BFF3B043343A36420000CF080FD2000C1
:1090F0000E490CF069FD0E4B0020F318012B09D925
:10910000C023039800933A000A4B31000068FFF730
:10911000A3FD002005B0F0BD98250020C425002047
:1091200016FCFFFFBC250020C0250020B425002030
:1091300002FCFFFFF18C010010B5FFF75FFE002875
:1091400009D0054C20680CF052FD044920680CF051
:109150003BFDFFF711FF10BD98250020942500204E
:10916000F7B507000D0000282DD0FFF747FE0028B7
:109170002BD00724164E3068C36C1C4006D0154A0D
:10918000290038000CF04AFD00241FE003F057FCD2
:1091900002213268D36C1940019103D003218B4323
:1091A000D36413E001242343D3642800B847326812
:1091B000D36C1900A143D164019C5B0706D528003C
:1091C0000CF064FD02E0044C00E0044C2000FEBD05
:1091D000982500208D5C020017FCFFFF16FCFFFFA6
:1091E000020010B5014B12CB12C210BDCC250020DD
:1091F000034A044B12681A607E225A607047C046C8
:1092000004200020CC25002070B5114D02002B78E1
:10921000022B19D0814219D90B1A072B16D9080035
:10922000032310431840041E10D172B62B7809484E
:10923000DB001A50C01841600CF042FD2B7801335E
:109240002B7062B6200002E0034800E0034870BDC6
:1092500023290020D425002013FCFFFF17FCFFFF6B
:1092600070B50021041C07F0B7FC002823D1FE21B3
:10927000201C890507F0BAFC00281CD104300BF033
:1092800033FE05000F48401B08F000FC211C08F0CD
:10929000F9F807F0DFFC03239843040028000BF0E3
:1092A0002DFE20000BF020FE002806D1203C002CD3
:1092B000F7D1054805E0054803E00119FFF7A4FFD1
:1092C000002070BD0038002013FCFFFF17FCFFFFDB
:1092D00070B5050000240D4B1B789C4209DA0C493F
:1092E000E300C91828000CF0F3FC00280AD101346F
:1092F000F1E728000BF0F8FD041E04D11420FFF75D
:10930000C3FB00E00400200070BDC04623290020FC
:10931000D425002070B5002818D00D4B0D491C78BD
:109320000023A34210DADA005558A8420AD98A1855
:109330005268904206D28023043802681B06134309
:10934000036003E00133ECE70BF0D8FD70BDC046CD
:1093500023290020D425002070B5051E15DD0C4BF7
:109360000C4E1A681C00002A02D030680FF0E7FF8C
:10937000FA21256000243068074B89008361C462AC
:1093800069430FF0E4FF200000E0044870BDC046D0
:1093900014260020E42500204594010017FCFFFF5F
:1093A000F8B5114F06003D68002D0AD13020FFF7B7
:1093B0008FFF040006F0C2FB0C4BA5612360E56241
:1093C0003C600B4D2B68002B09D11020FFF780FF6C
:1093D000040010F009F820002C600FF0DFFF3000CF
:1093E000FFF7BAFFF8BDC046E4250020E4A0020064
:1093F00010260020014B18687047C0461426002034
:1094000070B50D4C2368002B03D00C4B1B68002B50
:1094100002D10620FFF7C4FF20680FF0D6FF02003C
:109420000749C3170D684E685219734120680A60D6
:109430004B600FF0D0FF70BD10260020E425002007
:10944000B020002010B5FFF7DBFF0024054BE058EB
:10945000002802D003681B6898470434282CF5D1F3
:1094600010BDC046E825002010B5FFF7C9FFFA225D
:10947000034B920018685968002307F0CBFB10BD1E
:10948000B020002010B5FFF7BBFF024B18685968E9
:1094900010BDC046B02000200B4B10B51B68040067
:1094A000002B03D0094B1B68002B02D10620FFF7CD
:1094B00077FF0023064A99008858002801D001331D
:1094C000F9E78C5010BDC04610260020E42500208E
:1094D000E8250020002310B5044A99008C588442E6
:1094E00001D00133F9E70020885010BDE8250020A5
:1094F00010B50400002902D00B78002B02D1034BD9
:10950000236001E00CF08DFC200010BD709B020078
:10951000F8B505000E001400002908D00B78002BC8
:1095200005D0080097B210F0FCF9874202D90B4B26
:109530002B6010E0601DFFF7CBFE28600CF008FEEA
:109540002868220047803100043010F08CF92B6825
:109550001C19002323712800F8BDC046709B02002F
:10956000014B03607047C046709B020010B5054870
:10957000054C20600CF0EFFD044A0549200010F076
:109580002EF910BD709B020018260020002000203C
:10959000155E0200084B73B51C680500002C0AD04C
:1095A0000100266808310822684610F05CF90CCDED
:1095B00031682000884773BD1C260020014B0360E2
:1095C0007047C046789B020030B5046860888142CD
:1095D00006DAA588AA4203DA002901DB002A01DAAB
:1095E000034804E04243601880188371002030BDB6
:1095F00017FCFFFFF0B5070085B00E001D00002925
:109600001FDD002B1DD00468638803938B4200DDAF
:109610000391A3880293934200DD02920023063453
:109620000193019B029A93420DDA29002000039ACC
:1096300010F019F93B68AD195B88E418019B013300
:10964000EEE7024800E0002005B0F0BD17FCFFFF88
:10965000F8B504000D0016001F00002901DB002AE8
:1096600002DA0D4B236016E0100048430630FFF786
:109670002FFE20600CF06CFD23685D809E80002F23
:1096800006D03B00320029002000FFF7B3FF02E0C4
:1096900020000CF09CFCF8BD789B0200F0B50600A1
:1096A00087B00C1E05D000200F00050001900100BE
:1096B00015E0224B03603EE03022524294469C4427
:1096C0006246092A14D90A2B0DD1019B2D180133AA
:1096D0000193A94200DA29000020050001373B78F8
:1096E000002BE9D106E00028F8D001350020F5E78D
:1096F0000120F3E76A46928809B212B23000FFF700
:10970000A7FF33689D1D03AB1F002278002A12D0EB
:1097100011003039092902D81A70013309E00022FA
:109720001A70BB4205D9380010F07DF83B00287054
:1097300001350134E9E7300007B0F0BD789B020045
:10974000F0B5040087B004A815001E000F00FFF755
:1097500047FD23685A88954208DA9B88B34205DDA5
:109760001F2F03D9059B00939F4201DD18482DE070
:10977000052300217B430093049B0193009B019AE6
:10978000CB18A03BD35C0022029373189C4653195C
:10979000276803937888834202DABB889C4507DBFD
:1097A0000132052AF3D101310529E7D100200DE06E
:1097B000634658435319FB18102717411B1802988A
:1097C0000740781E87417F429F71E9E707B0F0BDEF
:1097D00017FCFFFFF7B5036806009C1D5B880D00B2
:1097E0005A1A0192002918DD0027994202DB0CF079
:1097F000EEFB14E033689B889F4210DA6119019AEE
:10980000200010F030F8019B2900E0180CF0D1FB8B
:10981000336801375B88E418ECE7024800E0002079
:10982000FEBDC04617FCFFFF10B50548054C206083
:109830000CF091FC044A054920000FF0D0FF10BD48
:10984000789B02002026002000200020A55F020057
:1098500010B5054C012120000CF071FC034A0449AD
:1098600020000FF0BCFF10BD2426002000200020A7
:10987000FF6002000388074A10B50120934208D018
:10988000834202D00020DB0703D41E20FFF7FCF840
:10989000002010BDFFFF000010B50400034B08338B
:1098A0000360FFF745FB200010BDC046809B02000F
:1098B000FA2370B52A4A41899B0059431300383373
:1098C00004001E00083A1D6818008D420BD2254B7B
:1098D000227B1D1D082A0BD8042A09D89D1C022AA8
:1098E00006D81D0004E0083B06009342EBD1EEE7EA
:1098F000FA213068890006F0DDFF60812B780022B4
:1099000023732A2120000CF049FC002801D01648BE
:1099100024E010222B2120000CF040FC0028F6D17E
:1099200001222D2120000CF039FC0028EFD101226A
:109930002E2120000CF032FC0028E8D16A780E219C
:1099400020000CF02BFC0028E1D1012233792A21E0
:109950001A4320000CF022FC0028D8D170BDC0466C
:10996000989B0200E4AA02000EFCFFFF7FB51500E1
:109970000F226A4404001E001170002D15D0002B28
:1099800013DD012301890093006B01F06DF90028BC
:1099900001D007480AE00090218933002A00206B9B
:1099A00001F018F9002801D0F3E7024804B070BDB7
:1099B0000EFCFFFF17FCFFFFF7B506000025019323
:1099C000214B143608330400036085808571C581FE
:1099D000058245820F0000922900182230000FF006
:1099E00060FF1C2130000FF07CFD6B469B8802223B
:1099F000A3806B461B8821002381142363812300ED
:109A00003833A571227327633E311D705D70658701
:109A1000A5870B7820009343F132134022000B708E
:109A200023004832157055800135221DD587083333
:109A3000A21DD587DD87FFF73BFF002802D1A37960
:109A40001D43A5712000FEBD809B020030B504259A
:109A5000837987B004002B4204D1FFF75BFAA37926
:109A60002B43A371A36AA2691B6800251A4228D15F
:109A700006236A4601212000FFF778FF002801D065
:109A8000114D1EE06B460222207B9A5669464243E6
:109A9000D2001B79228202225BB243430978DB00A9
:109AA00049B241436382A379C9009343E181A37121
:109AB00020000CF081FB0123A1881A0002A80CF001
:109AC0004EFA280007B030BD0EFCFFFFF8B50400C9
:109AD000FFF7BCFF0E22A35E7C4F5B42BB4205DA60
:109AE00023003E331B789B0700D5C6E02000FFF71C
:109AF000ADFF0E22A35EC8225B42002552009342B6
:109B000005DD23003E331B789B0700D4B5E0200021
:109B1000FFF79CFF1022A35E5B42BB4205DA2300E5
:109B20003E331B785B0700D5B5E02000FFF78EFFC2
:109B30001022A35EC8225B425200934205DD23003F
:109B40003E331B785B0700D4A5E026002000FFF71A
:109B50007DFF1222A35E4836BB4205DA23003E3366
:109B60001B781B0700D5A3E02000FFF76FFF12232F
:109B7000E25EC8235B009A4205DD23003E331B787A
:109B80001B0700D494E0002D19D03378032B16D88E
:109B90000133DBB23370012B04D1230000224A339E
:109BA0001A800CE0042B0AD1220001213E321378E6
:109BB0004A340B431370002323800B3384E0327844
:109BC000002A1AD02100270001254A310B883E3790
:109BD00001339BB20B803878AC46054008D01D2B72
:109BE0000BD963469843002338700B80337004E030
:109BF000092B02D9013A0D80327020000CF047FB8E
:109C0000334A072390425FDD2000FFF71FFF0E233A
:109C1000E25E304E52420323B24255DBC82520009B
:109C2000FFF714FF0E23E25EAD0052420423AA4266
:109C30004ADC2000FFF70AFF1023E25E02235242B3
:109C4000B24241DB2000FFF701FF1023E25E012357
:109C50005242AA4238DC2000FFF7F8FE1223E25EEF
:109C60000523B24230DB2000FFF7F0FE1223E25E54
:109C70000623AA4228DC002326E001252100280033
:109C80003E310B785A08904302000220AA408343D9
:109C900013430B703BE70125210028003E310B7870
:109CA0009A08904382000420834313430B704CE7CF
:109CB000210001223E310B78D80882430820D200CF
:109CC000834313430B7060E71800F8BD70FEFFFF7D
:109CD000FF700200E0FCFFFF10B50400034B0833E7
:109CE0000360FFF7F7FB200010BDC046D89B0200C1
:109CF00070B5C369C2681B688AB00400451D1A426A
:109D000050D0EB7F002B01D0013BEB77EB7F082B92
:109D10000DD90122A379134209D11343A371A1885C
:109D2000130006A80CF01BF9FFF79EFB2062EB7FE7
:109D3000012B26D80123A2791A4222D00025A1881E
:109D4000A571022202A80CF00AF9A31DDE7F012EE4
:109D500017D1FFF789FB2B00226A801A99410090E6
:109D60000191019BA188AB4203D1174B009A9A4203
:109D700002D90123042201E03300032206A80CF0DB
:109D8000EEF80323A2791340012B1AD1FFF76CFBE5
:109D90000023226A801A9941994208D10B4B9842BC
:109DA00005D80EE0EB7F0B2BB0D80133ADE70222D4
:109DB000A379A1881343A3710332012306A80CF0F1
:109DC000CEF80AB070BDC046E7030000DB05000016
:109DD000F0B5070000250E0085B002930AAB1B7892
:109DE00008370393104B0400083303600192858009
:109DF00085712900182238000FF053FD039A3100B5
:109E000038000FF073FB6B466A469B88127AA3807A
:109E1000A31DE671DA77631D25622000DD77FFF769
:109E20003BFB200005B0F0BDD89B020010B504003C
:109E3000034B08330360FFF77BF8200010BDC046DA
:109E4000F09B02007FB515000F226A4404001E003B
:109E50001170002D15D0002B13DD01230189009313
:109E6000C06B00F001FF002801D007480AE0009015
:109E7000218933002A00E06B00F0ACFE002801D0FD
:109E8000F3E7024804B070BD0EFCFFFF17FCFFFFB4
:109E9000002330B585B003AC217001890093050023
:109EA00001332200C06B00F0DFFE002801D00A4819
:109EB0000FE0207060702989009002232200E86B77
:109EC00000F088FE0028F2D1207863780002184361
:109ED00000B205B030BDC0460EFCFFFF13B56B46A7
:109EE000DC1D0023220023700133FFF7ABFF0028A5
:109EF00001D1207800E0014816BDC0460EFCFFFFEE
:109F0000D0B504000CF0A1FAE268A369981A09F030
:109F100041FA06000F00E3692069181A09F03AFABD
:109F200032003B0009F0B2FD0022104B08F02EFC7D
:109F30000F4A104B08F014F909F0C2FA0021041C72
:109F400006F040FE002804D0201C0B4906F05AFF02
:109F5000041C201C09F060FA02000B0000200749D5
:109F600008F08EFE09F0E0F9D0BDC04600806640E2
:109F7000EA2E4454FB2109400000B443008076409F
:109F8000F0B5050087B0006C0CF022FA041C286CB8
:109F90000CF015FA0221061C28000CF087FA0221A9
:109FA000059028000CF094FA07F028FD022101909A
:109FB00028000CF09FFA07F021FD0290201C09F008
:109FC0002BFA04000D0009F019FD09F079FA2900B7
:109FD0000390200009F0C8FC09F072FA0490301CCC
:109FE00009F01AFA06000F0009F008FD09F068FAF6
:109FF0003900041C300009F0B7FC060005980F007A
:10A0000007F0FCFC3900051C300009F059FA011C6E
:10A01000281C07F037FA211C051C019807F032FABA
:10A02000039907F02FFA011C281C06F0EBFE211CF7
:10A03000051C029807F026FA049907F023FA011C80
:10A04000281C06F0DFFE09F0E7F904000D00029875
:10A05000039907F017FA0499061C019807F012FA01
:10A06000011C301C07F022FB09F0D6F922002B005E
:10A0700009F00CFD00220C4B08F088FB0B4A0C4B3E
:10A0800008F06EF809F01CFA0021041C06F09AFD95
:10A09000002804D0201C074906F0B4FE041C201C34
:10A0A00007F08AFC07B0F0BD00807640EA2E4454E9
:10A0B000FB2119400000B443F8B50022102105002F
:10A0C0000CF0B5F91D4E002835D1032708212800D2
:10A0D000FFF704FFB0422ED03840041E27D1FA23E8
:10A0E000174A69899B005943130050331E00083AF0
:10A0F0001F6818008F4203D3083B06009342F7D134
:10A10000FA213068890006F0D5FBA0226881112170
:10A1100028000CF08CF900280DD101223379102190
:10A120001A4328000CF083F9002805D003E06420CE
:10A13000FEF78AFFCAE7014C2000F8BD0EFCFFFFC6
:10A14000089C0200F0B504260500807985B03040F7
:10A15000041E16D1022728000CF077F9AB790622ED
:10A16000BB433343AB71A988012368460BF0F7FE6C
:10A17000AB7920001A00B243AA713B4202D10248D7
:10A1800000E0024805B0F0BD14FCFFFF15FCFFFF26
:10A1900010B5837904005A070DD49B0701D4FFF74B
:10A1A000D1FF236C2000002B02D0FFF7E9FE03E073
:10A1B000FFF7A6FE00E0014810BDC04615FCFFFFFA
:10A1C00070B5466C86B001AC050001916260A36079
:10A1D000002E0CD00B4905A8FFF78AF90C232200AA
:10A1E00005A930000CF0E7FE05A80BF013FE2B00CC
:10A1F0000C3307CC07C30222AB791343AB7106B013
:10A2000070BDC046EAAA0200642330B50400028192
:10A21000438185B08180FFF74FFF0222A379606CF4
:10A220009343A371002813D00C490CF091FE051E36
:10A230000ED001000C22103101A80FF014FB2000F9
:10A240000199029A039BFFF7BBFF2800FFF762F812
:10A250000122A3791343A37105B030BDEAAA02001D
:10A26000F7B5009308AB1B880400019309AB1D8868
:10A2700000230F0016000D4A8380083283710260AC
:10A28000C360036143618361C36103621D212430A4
:10A290000CF0C0F8009BE76326642900200063648B
:10A2A000019AFFF7B1FF2000FEBDC046F09B0200FF
:10A2B00082B0F0B50400A3B06420299328920FF077
:10A2C0009FF904220C2107A80DF0CBF82422CE49D7
:10A2D00019A80FF0C8FA052204A811000BF080FE9F
:10A2E000CA4905A8FFF7DAF9A06800F079FBA5686C
:10A2F000C74916A8FFF7FCF8782216A9280000F035
:10A300000FFC16A80BF086FD6E256420013D0FF0B2
:10A3100077F9002DF9D1A06800F062FBA0680CF07D
:10A320008EFA012160680BF0C6FF0121070060680A
:10A330000BF0D4FF06000A200FF062F90022B54BA3
:10A3400003929F4210DB013203923A00C8320BDBCA
:10A3500004220392C8229200974205DC0322039252
:10A36000C82F01DC013A0392002202929E4210DBC8
:10A37000012302933300C8330BDB04230293C82369
:10A380009B009E4205DC03230293C82E01DC013BA7
:10A3900002935D2604A80BF01AFE02ABF6183700F4
:10A3A0007B78002B06D07B1E19783A78FF2304A80F
:10A3B000FFF70AF9812302AA03379B189F42EFD1C6
:10A3C0006B4608229A5E6B4604A80C21595EFF2357
:10A3D000FFF7FAF80023A068009374301A0004A96C
:10A3E0000BF005FE731E1B78039A934234D1337829
:10A3F000029A934230D17778002F2DD1390020680E
:10A400000CF054F807F0FAFA3A00031C290007A8E8
:10A410000DF072F8390020680CF05AF807F0EEFAE7
:10A420000122031C290007A80DF066F839002068F6
:10A430000CF060F807F0E2FA2900031C022207A8DA
:10A440000DF05AF8FE2329009B05032207A80DF002
:10A4500053F8012301357370812302AA03369B1838
:10A460009E42BFD164200FF0CBF80B2D00DC58E7E3
:10A4700007A80DF02DF8012201000AA80CF0F1FF49
:10A48000002507A80DF024F885423CDA29000022B7
:10A4900007A80DF01FF80022061C290007A80DF0E0
:10A4A00019F8011C301C06F0EDFF2900061C0122E2
:10A4B00007A80DF00FF80122071C290007A80DF0CE
:10A4C00009F8011C381C06F0DDFF311C06F09AFC6F
:10A4D0002900061C022207A80CF0FCFF022229001A
:10A4E000071C07A80CF0F6FF011C381C06F0CAFF79
:10A4F000311C06F087FC2900031C00220AA80CF07E
:10A50000FBFF0135BDE707AA1100012316A80DF0D6
:10A510000DF816A90DA80DF068F816A80CF0FDFFAF
:10A520000AAA07A910A801230DF000F8002310AA19
:10A530000DA913A80CF0FAFF002213A811000CF0CB
:10A54000C9FF0022061C012113A80CF0C3FF002242
:10A55000051C022113A80CF0BDFFFC21071C890576
:10A56000301C06F08FFF07F027FAFC21060016903A
:10A570008905281C06F086FF07F01EFAFC2105005D
:10A5800017908905381C06F07DFF07F015FA2A00A0
:10A590000300310018902068FFF712FEA0680CF04D
:10A5A0004EF905A906A8A5680BF009FD00221A4B73
:10A5B000009206A901932800130000F053FA06A8A0
:10A5C0000BF0F0FCFA2080000FF01AF8A0680CF0F5
:10A5D00036F913A80CF0A1FF10A80CF09EFF0DA8EF
:10A5E0000CF09BFF0AA80CF098FF05A80BF0DAFC12
:10A5F00004A80BF0D7FC07A80CF08FFF23B0F0BC29
:10A6000008BC02B01847C046F5AA020019AB020008
:10A610005EAB0200E0FCFFFFDC050000F0B58360EC
:10A62000204B85B01F68050001604260002F36D0C6
:10A630002820FEF74DFE040010300BF085FC0523AA
:10A640002380013363801820FEF742FE164B06007C
:10A650000293002320C619000190102230000393BA
:10A660000FF01FF9082202A930000FF0FCF80F4B81
:10A67000019A210053610023E360C233A3800023C9
:10A68000A260236263623B6838005B6898470028D9
:10A6900005D020000BF074FB2000FEF73BFE2800E5
:10A6A00005B0F0BD1C260020B1A201000D6502001E
:10A6B000F7B5040001220025A37A29009C460D333A
:10A6C0009A40276F0092FB680193019B9D4231DA0B
:10A6D000BB687A696B4363445B00E67AD3181A78E7
:10A6E0005878E379012E04D15E1E361A100032002C
:10A6F0000EE0022E05D15E1EB21A267A013E301AF5
:10A7000006E0032E04D1267A013EB61A020030007C
:10A710005B004343606F8218D3189B79627A93423F
:10A7200000DD1300627B1A4202D00123AB401943C3
:10A730000135CAE71123C943FB56606C9940236970
:10A740001940009B19430FF01DF8A37B072B18D865
:10A75000627B581C520062730A499A00A073022B54
:10A7600003D888580EF041FFA4E7074B200023636D
:10A7700000236363054B8958E462236414300EF0B0
:10A78000E6FDF7BD789C0200B1A601004D65020010
:10A7900010B50400044B03600EF0D1FD200005F05D
:10A7A000E3F9200010BDC046E4A0020010B504008B
:10A7B0000E4B08330360FEF78DFE200074300BF063
:10A7C000F1FB200060300BF0EDFB200058300BF067
:10A7D00021FB200050300BF01DFB2000044B1430F7
:10A7E0006361FFF7D5FF200010BDC046609C0200EA
:10A7F000F8A00200F8B500250400324B858008332C
:10A8000003608571143016000F0005F097F92000E1
:10A810002D4BE562636125645030FEF7A1FE2000F8
:10A820005830FEF79DFE20006030FEF7C7FE200086
:10A830000423F25E33682667590009B274300BF0C6
:10A84000CFFB3378226FE3717368012623721023E4
:10A85000E572A572A7802561D356916859188B427D
:10A8600004DA3000984001330543F8E71123012052
:10A87000D356D16859188B4206DA02009A402669ED
:10A88000013332432261F6E71420FEF721FD2269ED
:10A8900000212A430123060005F024FCFF226272F6
:10A8A000220000230125483266646573A373237375
:10A8B00020001370A366FEF7EFFDA37920002B4361
:10A8C000A371F8BD609C0200F8A00200F0B5437AC5
:10A8D00085B00400002B68D0837A00251A009C46BE
:10A8E000012319000D32914001912900076F039354
:10A8F000FA680292029BAB422CDDBB687A696B431B
:10A9000063445B00E67AD3181A785878E379012E0D
:10A9100004D15E1E361A100032000EE0022E05D160
:10A920005E1EB21A267A013E301A06E0032E04D1CA
:10A93000267A013EB61A020030005B004343606F86
:10A940008218D3189B79002B02D0039BAB4019438C
:10A950000135CFE71123C943FB56606C9940236949
:10A960001940019B19430EF00DFF667AB31EDBB24E
:10A97000FC2B14D8FEF73EFD0D4B0500236300238E
:10A980000C4863630C4BFF21E4622364704306F0C0
:10A990001BF829004143200014300EF0D8FC637AE4
:10A9A000012B02D820000BF0DBFD05B0F0BDC04646
:10A9B00061650200B60300004D6502001FB501236A
:10A9C00081881A0068460BF0CAFA012303491A006D
:10A9D00068460BF0C4FA05B000BDC046FE03000097
:10A9E0001FB5030048331A780400002A0DD0002256
:10A9F0001A70012381881A0068460BF0B0FA01230F
:10AA000004491A0068460BF0AAFA200074300BF0D3
:10AA1000DEFA1FBDFF03000010B548300378002B9D
:10AA200006D00378012B03D0012102480BF01EF958
:10AA300010BDC046FF03000010B501210400062030
:10AA40000BF014F9064B984209D1230048331A78C9
:10AA5000002A04D01B78012B01D020BFF5E710BDE0
:10AA600016FCFFFF73B5079C0500002C09DB0600F0
:10AA700048363078002806D03078012803D00D48B9
:10AA800016E00D4814E006981BB2C0B200902800F2
:10AA900012B274300BF0ABFA0020844207D02B00C6
:10AAA0004A331C8007234C352880337000E0200097
:10AAB00076BDC04612FCFFFF17FCFFFFF0B587B064
:10AAC0000D9E05000F0002920393002E1EDBFFF780
:10AAD000A3FF2B0048331C78E4B2002C18D13900B6
:10AAE00005A80BF06CFA0C9B029A009305A9039B36
:10AAF00001962800FFF7B6FF05A80BF053FA301EA9
:10AB000007D02800FFF798FF200002E0024800E08D
:10AB1000024807B0F0BDC04617FCFFFF11FCFFFF65
:10AB2000F8B50400171E09DD060048363378002BFF
:10AB300006D03378012B03D00C4816E00C4814E003
:10AB40002200E3795632013B1370230000252000D8
:10AB500054331D8050300BF0C5F923004A331F8059
:10AB6000022328004C3425803370F8BD12FCFFFF0F
:10AB700017FCFFFFF7B505000F00161E18DDFFF7E5
:10AB80004BFF2B0048331878C4B2002C12D1390087
:10AB900001A80BF09FF9320001A92800FFF7C0FFC0
:10ABA00001A80BF037F92800FFF746FF200002E06C
:10ABB000014800E00148FEBD17FCFFFF11FCFFFF4C
:10ABC000FF2902D84172002000E001487047C046CA
:10ABD00017FCFFFFF0B51F0085B00AAB1B7804001F
:10ABE000039300933B000D0016000EF012FB0028AB
:10ABF00032D0237D082B2DD8236800221900FC3188
:10AC00008A62A021C9005A50154905205A500138BE
:10AC1000C046C046C046C046C046C046C046C04604
:10AC2000C046C046C046C046F1D1236801325A50E2
:10AC3000A0220521D200995005F0BEFC039B3200F2
:10AC4000009329003B0020000EF0E3FA237D01333E
:10AC50002375CCE7034800E0207505B0F0BDC04681
:10AC6000FC0F00000EFCFFFFF0B51F0085B00AAB23
:10AC70001B780400039300933B000D0016000EF0B8
:10AC8000B0FA002832D0237D082B2DD8236800226B
:10AC90001900FC318A62A021C9005A5015490520CB
:10ACA0005A500138C046C046C046C046C046C0469D
:10ACB000C046C046C046C046C046C046F1D1236823
:10ACC00001325A50A0220521D200995005F074FC9F
:10ACD000039B3200009329003B0020000EF081FA14
:10ACE000237D01332375CCE7034800E0207505B0D0
:10ACF000F0BDC046FC0F00000EFCFFFFF8B50D1EB6
:10AD000025D000260227C468002C1DD0AA88A3885D
:10AD100053403B4216D13A4203D1AB883B4207D065
:10AD200010E0A968A0680CF08BFB002804D1F4E7C0
:10AD3000A368AA68934205D12B88002B09D02288EA
:10AD40009A4206D0646ADFE72000002E0DDC074837
:10AD50000BE06B88002B02D062889A42F2D1A38864
:10AD6000034A01361343A380ECE7F8BD17FCFFFF4D
:10AD70000080FFFFF0B5060085B00D1E58D00127FA
:10AD8000C468002C19D00221AA8800230A4202D0EC
:10AD9000A3885B083B40226829688A4253D1002B74
:10ADA00006D0A968A0680CF04BFB002842D14AE00D
:10ADB000A368AA68934246D13CE0F1682A880F0054
:10ADC0000B1E0CD1F5600123214968460BF0C7F832
:10ADD00020003AE0586A1F00002812D003001888AB
:10ADE0009042F7D318003B000488944209D1478869
:10ADF0006C88A74205D2446A0300002C01D02000D1
:10AE0000F2E799420AD10888824204D306D14C88DD
:10AE10006888844202D96962F56002E0596A696211
:10AE20005D6201230A4968460BF099F800200CE0A6
:10AE300008480AE0A3881AB2002A02DA5B045B0C15
:10AE4000A380054801E0646A9BE705B0F0BDC046F9
:10AE5000FD03000017FCFFFF16FCFFFF064B10B5BB
:10AE60001A00040008322C33026043600430FEF7FD
:10AE70005FF8200010BDC046989C020008B4024B49
:10AE80009C46043808BC60475DAE010008B4024B24
:10AE90009C46043808BC60477F6902000C4A0023C6
:10AEA00011002C32083110B5038183724260C360F7
:10AEB000036143614383016004000430FEF72AF814
:10AEC000044B1A68002A00D11C60200010BDC04647
:10AED000989C02001C260020F7B50E000125C468CE
:10AEE0000192002C37D0238832889A4201D0002B5F
:10AEF00026D1638872889A4201D0002B20D1FDF7B9
:10AF00007DFF0123002806D0A288BF331340C03B39
:10AF10005A425341DBB2019A934210D1A7883BB207
:10AF2000002B0CDB10223100A0180EF09CFC4023FB
:10AF30001F4207D1FDF762FF002803D006E000257D
:10AF4000646ACEE720000BF023FDF9E721000348F7
:10AF5000FEF706F9F4E72800FEBDC046916902003D
:10AF600008B4024B9C46043808BC60471B6B0200C7
:10AF7000F0B587B001930EAB1B88060003930D9BC1
:10AF80000D000093019B02920C9F002B3DD0002FDF
:10AF900002D1009BDB0738D52820FEF799F9040081
:10AFA00010300AF0D1FF6B461B8925806380182082
:10AFB000FEF78EF9049707000500009B1022059309
:10AFC000019B002108C738000EF06BFC082204A981
:10AFD00038000EF048FC0E4B02226B610023A56086
:10AFE0000399E3602362636233680A43A2805B686B
:10AFF000210030009847002808D020000AF0C0FE49
:10B000002000FEF787F9034800E0034807B0F0BDD1
:10B01000476B020016FCFFFF17FCFFFFF0B50400B2
:10B02000160000258380164A164B85710260218127
:10B0300046810573186889B08C46A8421DD0124A13
:10B0400005950492C02202926A4604AB82CB82C26A
:10B05000614623002A00FFF78BFF0B4A094B06923B
:10B06000C022186802926A4606AB079582CB82C25C
:10B0700023002A003100FFF77BFF200009B0F0BD5C
:10B08000DC9C02001C260020716C020030B50024FC
:10B0900003730123034D84710560818082734373C0
:10B0A000846030BDF49C020010B583790400DB0796
:10B0B00002D58068FEF72EF9A3799B0702D5A06818
:10B0C000FEF728F9A3795B0707D5A0230021154ACD
:10B0D000DB00D150A068FEF71DF9A3791B0709D545
:10B0E000A0680DF035F80E23E356834202D1A06824
:10B0F00001F020FDA379DB0605D5A068002802D069
:10B100000368DB6898476023A2791A4205D0A068DB
:10B11000002802D003685B6898470023A360A371EE
:10B1200010BDC04600700040F7B5037B04000F005F
:10B13000DB0725D5012925D8022385791D4015D1A6
:10B14000FFF7B2FF1820FEF7C3F80E230600E35600
:10B150001822290001930EF0A4FB019930000EF093
:10B16000D7F90222A379A6601343A371A3685A6892
:10B17000002F03D0DB681A60002004E01B69FAE7A7
:10B18000014800E00148FEBD16FCFFFF17FCFFFF71
:10B1900070B5037B04009B0715D5042583792B42EA
:10B1A0000DD1FFF781FF0820FEF792F80E2106006F
:10B1B000615604F015FDA379A6602B43A371A06826
:10B1C00004F036FD00E0014870BDC04616FCFFFFEC
:10B1D00070B5040000250D4B0E0008338580857185
:10B1E0000360210014300BF005FE200021001C300C
:10B1F0000BF023FE064BA680A571E57125726572E2
:10B20000E560256120001C6070BDC046049D020001
:10B21000282600208379DB0702D54172002000E058
:10B220000048704716FCFFFF8379DB0701D5407AA1
:10B2300000E001487047C04616FCFFFF70B5056985
:10B240000400002D22D0037A032B21D8FFF7ECFF56
:10B25000283528702C20FEF73BF82C220021050011
:10B260000EF01FFB002322695362E368002B01D11B
:10B27000E26005E0596A002901D00B00FAE75A6242
:10B28000237A256101332372002002E0014800E0A7
:10B29000014870BD17FCFFFF13FCFFFF154B70B595
:10B2A0005A68154D002A03D000225A600132AA6064
:10B2B0001B69114E002B1CD000210E4B0F4C196145
:10B2C0008023DB00F358012B0ED1A923DB00F158BA
:10B2D0002068C9B2FFF79EFF2068FFF7AFFF236821
:10B2E0001A69074BF25002E02068FFF793FF012331
:10B2F000AB6070BDFC10004000100040282600200C
:10B30000040500000221024A13780B4313707047B2
:10B31000242900200221024A13788B4313707047BE
:10B320002429002010B5002903DB024B19600DF021
:10B33000E1FF10BD2C26002070B504001E0004ABF8
:10B340001D7804F0B1FB20000E4B40302360FEF767
:10B3500007F9230001364C33013522001E701D739E
:10B360000023E1214E32A3646365138053809381EF
:10B37000D381013B200063644902FFF7D3FF200023
:10B3800070BDC046389B020070B5114D04002B788B
:10B390001B0705D501210BF090FD606DFDF7BAFF8D
:10B3A00008262B78B3432B70230058331878FDF709
:10B3B0008FFF6065002809D0230000205A331880D1
:10B3C0002B785C341E4320802E7000E0014870BD55
:10B3D0002429002013FCFFFFF0B5060007005C36AF
:10B3E0005A3733883A8885B004009A421ED0104BF1
:10B3F0001B781B071AD53388426DD15C0DF04AFFCC
:10B400002300308858331978013005F0C3FB3B889E
:10B410008DB2AB4209D107490123022268460AF0E6
:10B420009EFD012120000BF048FD358005B0F0BDE8
:10B4300024290020FF03000073B50D0006A90400B5
:10B4400009780430002A01D1DE070DD5002D0BD07C
:10B450000C34260018244C433419A360044B62605A
:10B4600025606361012200E0002204F0F9FF73BD52
:10B47000656E0200F0B507000400002589B0039155
:10B48000049205935A37049B9D4213DA23003E88A9
:10B4900058331978701C05F07DFB23005C331B8842
:10B4A00089B2994206D0039B626D5B5D013593556D
:10B4B0003980E8E7059B012B03D002210648FDF700
:10B4C000EDFD012320000093044A00232100FFF733
:10B4D000B3FF280009B0F0BDFF030000D9B301009D
:10B4E000F7B5194C1F0023780500019116009B0742
:10B4F00025D4002A25DD002923D0FFF703FF237878
:10B500001B0701D5002407E02800FFF73DFF0028B6
:10B51000F8D017E0A6420DDD019B321B1919280057
:10B520003B00FFF7A7FF3900241828000BF0B5FCFB
:10B53000002FEFD12800FFF7EDFE200002E00348C6
:10B5400000E00348FEBDC046242900200DFCFFFF9B
:10B5500017FCFFFF30B5022080250C4B0C4AED0094
:10B56000985080205C59C000002CFAD0A124074DCF
:10B57000E400295119580029FCD0002003498850C3
:10B580008021C9005A58002AFCD030BD00E001409B
:10B5900004050000F0B501250F4C1048A4460551E4
:10B5A0008025ED004459002CFCD080270024FF00AA
:10B5B0008025ED009C4207DAA5004E595651C55929
:10B5C000002DFCD00134F3E7002362468350435939
:10B5D000002BFCD0F0BDC0460405000000E0014097
:10B5E00070B5012480260B4B0B48F6001C508024BC
:10B5F0009D59E400002DFAD00A601A59002AFCD0A7
:10B600000021044A11508021C9005A58002AFCD058
:10B6100070BDC04600E0014004050000F7B580277A
:10B620007F053D697C690822113C6C4306002100BE
:10B6300068460EF018F9104B009A9A4219D0009300
:10B64000002301937969300013396943FFF782FFC2
:10B65000019A009930000BF03FFC21003000FFF709
:10B6600079FF7969AB081339694322003000FFF78D
:10B6700091FF0198FEBDC046FECA0000F0B50D0066
:10B68000ABB00D9200213022060012A80B930EF0F1
:10B6900008F928000EF045F9431C0C93102B00DD2F
:10B6A000B6E00B9B202B00D9B2E0290030000BF054
:10B6B0004FFC071E29D129000C9A12A80EF0D3F8CE
:10B6C0000D990B9A16A80EF0CEF880235B051F6922
:10B6D0005A693000113A7A435D690D92FFF79EFF77
:10B6E0000D9B30220833002104001EA80F930EF09A
:10B6F000D8F82900133979433000FFF72BFF0F9B4F
:10B700000B9300230C930E9335E010300B9A0D9998
:10B710000EF09AF804003800FDF7FCFD002C7AD0FA
:10B72000C9E70B9930221EA80EF09DF812A91EA899
:10B730000EF0EDF8002822D1384930002200109197
:10B7400011940BF0C9FB6A460B9B099315AB23CBF5
:10B7500023C223CB23C223CB23C23000149B1299D4
:10B76000139A0BF0CDFB01230E930B9B30330B93FD
:10B770000C9B01330C930C9BA342D2DB10E06A4676
:10B780000B9B099321AB23CB23C223CB23C223CB17
:10B7900023C230001E991F9A209B0BF0B1FBE4E7F7
:10B7A000E5433021ED1725404D430F9B5D190E9B5E
:10B7B000002B1BD1B81E05F07DF884422AD0174912
:10B7C000013430002200109111940BF085FB6A4681
:10B7D000099515AB23CB23C223CB23C223CB23C292
:10B7E00030001299139A149B0BF08AFB0D993000CC
:10B7F000FFF7B0FE80235B0559690C2363431339BF
:10B80000023379430D9A3000FFF7C4FE002402E0B2
:10B81000034C00E0034C20002BB0F0BDFECA00003A
:10B8200017FCFFFF13FCFFFF70B50400A280FA2293
:10B83000002308000C49920008312160A371606167
:10B84000E260A360638209490BF082FB051E09D008
:10B85000010020001031022212300EF004F82800FE
:10B86000FDF758FD200070BD1C9D02006CAB02006E
:10B8700030B50225837987B004002B4204D1FDF74F
:10B8800049FBA3792B43A37120000BF0A5FB0028F3
:10B890002DD06B46DD1C28000BF095FB2B78002B80
:10B8A00003D001A80BF08DFB0FE00122114B1A60B1
:10B8B000114A5368002BFCD000220F4B5A600F4BEB
:10B8C00001321B6801930B4B5A600322019BD9176D
:10B8D0000A40D3189B102382FDF7C6FDE368A188B8
:10B8E00018180123A0601A0002A80AF038FB0020F3
:10B8F00007B030BD00C00040FCC0004008C500409B
:10B9000010B50400054B0833036018300AF082FAC2
:10B91000200014300AF07EFA200010BD349D020091
:10B92000FF23F0B52B4C8DB0237000230500694632
:10B930000088009303F0ACF8002802D16B469B7896
:10B940002370254E3368DB68002B06D1002328883E
:10B950001A0019000BF054FB3AE02378032BF5D8BA
:10B960001E4901A8FDF7C4FD336801A9DE6804A8DB
:10B970000AF0B0FA04A930000BF017FB060004A887
:10B980000AF048FA371E1ED031002022103104A8D8
:10B990000DF069FF3000FDF7BDFC217804ABC90054
:10B9A0005918082202A80DF05EFF288801230822FA
:10B9B00002A90BF025FB0127002804D12888084A9A
:10B9C0000C210BF01BFB01A80AF024FA002FBDD0BC
:10B9D0000DB0F0BD882000203026002074AB02009E
:10B9E000FFFF000070B504008068002808D0064BF7
:10B9F0001D8801F0F5F8036815221B6A2900984795
:10BA00002000FDF795FA70BDC8280020F7B50400A6
:10BA100000250192C77FAF4254D9661970788842D9
:10BA200002D1152927D804E0605D2D180135EDB24B
:10BA3000F1E701228A40264802421CD0D919012090
:10BA40001F2943DCE1193718B94210D80021C8B2C8
:10BA5000834205D9019A7018575C01318770F6E767
:10BA6000625D9A186255E27F9B18E37728E00878B8
:10BA7000C8540139E8E7655D013DEDB2AB4209D13B
:10BA80000021C8B283421BD9019A7018545C01315D
:10BA90008470F6E7FF187F1B01201F2F16DC02279A
:10BAA000A81C7F4236187F1BE07F2218964203D2E3
:10BAB0003078F0550136F7E7451B023DE57701E0A8
:10BAC000002003E0019A20000BF0E6FAFEBDC0461C
:10BAD000FC002000F0B585B001930AAB1E880BABCB
:10BAE0001B78451C02930EAB1B78040003930B7864
:10BAF000170003704B8A10224382013128000DF099
:10BB0000B2FE6B469B88268363836B461B7B0026B5
:10BB100023776B4601221B7A6761E683EB77A31CD0
:10BB2000DA770C9B0C256362230020000D9A2833E2
:10BB30001A705E709E702A0031002C300DF0B1FE3C
:10BB40002000074BE663A3632A00310040300DF06C
:10BB5000A8FE2000034B2665E36405B0F0BDC04697
:10BB60001B7002000D70020070B50D0001F038F876
:10BB700004000368002D02D15B69984708E09B68C8
:10BB80009847854204D2236820009B6898470500A7
:10BB9000FA2080006843024904F08CFEE08070BD0A
:10BBA00071020000F0B507001600A1B002C7040042
:10BBB0006B4918A81D000BF0A1FA331E03D030000A
:10BBC0000DF0AFFE83B20122049200220392029292
:10BBD000023201920093320018A93800FFF77AFF71
:10BBE00023006049583318A807930BF087FA2B1EDF
:10BBF00003D028000DF095FE83B2012204920022AA
:10BC0000039202920232019200932A0018A9079827
:10BC1000FFF760FF23005449AC3318A808930BF0DA
:10BC20006DFA269B002B03D018000DF07AFE83B22C
:10BC300001220492002203920292023201920093A6
:10BC4000269A18A90898FFF745FF631CFF33474958
:10BC500018A809930BF052FA279B002B03D0180069
:10BC60000DF05FFE83B2012204920022601C039259
:10BC70000292023201920093279A18A9FF30FFF72F
:10BC800029FF23005533FF33394918A809930BF0D6
:10BC900035FA289B002B03D018000DF042FE83B22A
:10BCA0000122049200220392029202320192009336
:10BCB000289A18A90998FFF70DFF2300A933FF332D
:10BCC0002C4918A80A930BF019FA299B002B03D0D2
:10BCD00018000DF026FE83B201220492002218AD56
:10BCE00003920292023201920093299A29000A9843
:10BCF000FFF7F0FE204B1B780B93002B2DD1079BF9
:10BD000012971393089B0DAF1493631CFF33159385
:10BD1000099B1A4916930A9B380017930BF0EEF90A
:10BD20001D2149203B7810222B707B8A12AE6B823A
:10BD300006ABC918C0180DF096FD06232B756B468F
:10BD40009B8D2068AB83AE6100F05AFF0368290029
:10BD50001B6898470122084B1A70200021B0F0BDE3
:10BD6000292A0000242A0000252A0000272A000092
:10BD7000262A0000282A0000252900200A18000091
:10BD800070B500250400094B858008338571036078
:10BD9000C1601430FDF7E4FB20001830FDF7E0FB34
:10BDA000034BA560256120001C6070BD349D02001E
:10BDB00030260020FA21F0B591B0012305000222BF
:10BDC000890008A80AF0CBF82D4C2368DB68002B0B
:10BDD0004FD02C4B1A780193032A4AD82A4904A839
:10BDE0002F88FDF785FB236804A9DD6808A80AF001
:10BDF00071F808A928000BF0D8F8060008A80AF086
:10BE000009F802AB9D1D08232A002B8006A9073BD9
:10BE100038000BF0F7F8002E08D031002022103146
:10BE200008A80DF020FD3000FDF774FA019B2A8868
:10BE30001B7806A9DD0008AB5D1928000DF004FD94
:10BE4000002813D0082206A928000DF00CFD236855
:10BE500004A9DD6805A80AF03DF8202308AA05A971
:10BE600028000BF0A8F805A809F0D4FF04A809F0F1
:10BE7000D1FF2068002801D00BF079F911B0F0BD96
:10BE8000302600208820002074AB020010B50C1E64
:10BE9000072C0BD8806800F0A3FE054B19570368E8
:10BEA0005B6C9847002802D0024800E0024810BDB1
:10BEB00082AC020016FCFFFF17FCFFFFF0B5A24C9E
:10BEC0000D00A544040007939AAB1B789F4909A86D
:10BED00004930692FDF70CFB2000290018300AF0AD
:10BEE00001F8C020800001F0FBFC0820FDF7F0F90C
:10BEF0000700002100F03CFE15AD0021A7600C22D8
:10BF00000EA80DF0CEFC2B000EAA43CA43C3904BE3
:10BF10002900EB60002338002B610CF01CF9A068AD
:10BF200000F05EFE0C220021059028000DF0B9FC07
:10BF30001420FDF7CDF9874B2A0015930300C2CAE0
:10BF4000C2C3854B059EC3600023A43603613368DA
:10BF5000002B00D003613060A06800F051FE0C227D
:10BF60000021060028000DF09CFC1420FDF7B0F91C
:10BF70007A4B1593030086CD86C3794BC3600023AB
:10BF80000361336B002B00D003613063A06800F0C5
:10BF900027FE15AD0C220021060028000DF081FCC3
:10BFA0001420FDF795F96F4B98361593030086CD55
:10BFB00086C36D4BC360002303613368002B00D040
:10BFC0000361012504AB1B7C04AA2B43306008A944
:10BFD000280013740BF018F8A06800F021FE036825
:10BFE00062495B6A9847A06800F01AFE03686049DE
:10BFF0009B699847A06800F013FE00230268009335
:10C00000166804992A00B047049B002B0AD0200030
:10C010000BF0B6F8032805DDA06800F001FE036808
:10C02000DB6898470EA80BF02EF82F2004ABC01841
:10C030000BF029F8362004ABC0180BF024F83D2093
:10C04000042504ABC0180BF01EF80EAB0A93A068D1
:10C0500004AB5D7700F0E4FD03680AA91B6998470B
:10C06000A06800F0BDFD03680AA95B6D9847A06851
:10C0700000F0B6FD03680021DB6D9847A06800F072
:10C08000AFFD036802219B6D984700212000FFF758
:10C09000FDFE1820FDF71CF9A16800F0FBF9354BF7
:10C0A000354A1B68A1680393344B15A81B680CAE76
:10C0B0000293334B00271B680193069B1B685B1997
:10C0C0000093304B12681B68FFF76CFD3020FDF7C2
:10C0D000FFF8079AA16800F09BFAA06800F080FDC5
:10C0E000036831009B6A98470823A0683380DB18F7
:10C0F0007380B78000F074FD03683100DB6A9847F5
:10C100002900A0680BF006F8099A09219378A06825
:10C1100052190BF012F8A06800F062FDC8210771F7
:10C12000A068FFF721FD04AB1B7FBB4204D0A068D1
:10C1300000F056FD0AF0D8FF09A809F06BFE952320
:10C140009B009D44F0BDC046ACFDFFFF80AB0200EC
:10C1500029700200B5BD01003770020021B901004D
:10C1600045700200737002005370020089C1010023
:10C17000BDC1010038260020342600200C200020FC
:10C180003C2600200820002013B506226846FDF753
:10C19000BFF9094B1C68002C0AD0694601A809F0B8
:10C1A00099FE200001A90BF00CF801A809F032FE5D
:10C1B000684609F02FFE13BD30260020002373B51A
:10C1C00001AE0C0031000500019302F061FC002873
:10C1D00002D1B278064B1A70064B1868002806D0B8
:10C1E00061426141044BC9B21D800AF0F2FF73BD88
:10C1F0008820002030260020C8280020F0B5040048
:10C2000097B0029107A89A490592FDF771F99949EB
:10C2100008A8FDF76DF922000FAD2800183207A914
:10C2200009F06FFE08AA290009A809F06AFE280093
:10C2300009F0F0FD90490AA8FDF75AF9A06800F04E
:10C24000CFFC03680DAE5B69984728000AF01BFF1E
:10C25000332004ABC0180AF016FF3A2004ABC01814
:10C260000AF011FF412004ABC0180AF00CFF0423B0
:10C270000D950025A0687371357100F0B1FC03685D
:10C2800031005B6D9847A06800F0AAFC03682900A4
:10C290009B6D9847A06800F0A3FC070006000A37D2
:10C2A0001F22290038000DF0FCFAFD7730000AF05B
:10C2B00012FF0621A0680AF02DFF099A0921937840
:10C2C000A06804320AF039FFA06800F089FCC82198
:10C2D0000571A068FFF748FCA06800F081FC0581AB
:10C2E000A06800F07DFC0AF0FFFE0298FEF778FBE4
:10C2F0000AA90CA809F0EEFD78220CA90298FEF715
:10C3000039FC0CA809F086FD029920000AF06CFFA8
:10C310000423FF27039504932369DB0735D5574989
:10C320000BA8FDF7BBF90BA90CA809F048FE0022E9
:10C330000CA91300019200920298FEF7BFFB0CA813
:10C3400009F030FE039B002B01D1043F00E00437CD
:10C35000282F03DD0023FE2F06DC06E002980AF0FA
:10C360006EFA0123002F00DC039305980AF045F8CC
:10C37000002806D0012322699A431300049A13432C
:10C3800023610BA809F00EFE00252369049A1342CD
:10C390002AD0FF210298FEF713FC002563690222D0
:10C3A0009B5E9D421BDA200029B2143009F0BFFDCC
:10C3B0000023010002981A007430FDF7C1F9C8206B
:10C3C0008000FCF741FE02980AF039FAC820FCF719
:10C3D0003BFE02222369134201D10135DEE7FA2038
:10C3E0008000FCF731FE002502222369134233D07E
:10C3F00008261E401AD022490BA8FDF74FF90BA9B9
:10C400000CA809F0DCFD00220CA901920092130097
:10C410000298FEF753FB0CA809F0C4FD1948FCF77D
:10C4200013FE0BA809F0BEFD174D15E017490BA828
:10C43000FDF734F90BA90CA809F0C1FD3300320057
:10C440000CA9019600960298FEF738FB0CA809F09B
:10C45000A9FD0BA809F0A6FD6420FCF7F5FD0C4B27
:10C4600001359D4200DC57E709F0A0FB54E7C046C8
:10C470008EAB02009EAB0200A0AB0200AEAB02008E
:10C48000F3AB0200983A00008C0A000030AC0200C6
:10C490008B0A0000F0B505000024574BA9B0083303
:10C4A00003600391A96021000BAB1A19013451708C
:10C4B000102CFAD1012251481A701A1B013C015D5F
:10C4C0005174002CF9D19A7B597B12020A4329003E
:10C4D00045270C31029125211B7813AE337002AB36
:10C4E000FF18C9187282380010220DF0BCF9029BA7
:10C4F00002AA73610123338333770933FB771DABC2
:10C500001C706D239B181C706E2321009B18748374
:10C510000C22F4831EA81C7074620DF0C2F9384B13
:10C520000C22B3632100F46323A80DF0BAF9354B54
:10C530000322F364462302A95B18DA7722003465EC
:10C540002C73059606AF3B1901345A70102CFAD1A2
:10C5500001232D493B703B1B013C0A5D5A74002CA2
:10C56000F9D111212520BB7B7A7B1B020BAE134333
:10C570003A78738202ABC9183270C01810220DF0DD
:10C5800072F901230398337505ABB361B48300F0EE
:10C5900037FB036831001B68984713ABDB8BA86837
:10C5A000AB8200F02DFB03680094A98A029ADE6832
:10C5B0000123B047A86800F023FB02901420FCF789
:10C5C00087FE06000C2221000DF06BF930000123DC
:10C5D0003461082220C03900079306940DF043F916
:10C5E0000A4BF360029B9B69002B00D0336128004B
:10C5F000029B9E6129B0F0BD4C9D02009AAC0200E6
:10C600001B7002000D7002008AAC02004B72020027
:10C61000F0B500260400764BDDB00833036081607E
:10C62000C260868086713200724947A80AF0ADFE6A
:10C6300023001433089301230493113301930E3B19
:10C640000093089A330047A9039602961DA8FFF7A6
:10C6500041FA3200684947A80AF097FE01232200F8
:10C66000049307330193043B15AF1032009347A99D
:10C6700033000396029632A8FFF72CFA32005F4986
:10C6800038000AF082FE23001C330993012304932F
:10C6900007330193043B39000093099A3300039652
:10C6A000029647A8FFF716FA3200554938000AF0FB
:10C6B0006CFE5420FCF70CFE230018330793012373
:10C6C00005000493113301930E3B39000093079A40
:10C6D000330003960296FFF7FDF92800494BA56247
:10C6E0000822EC620AA930300A930B960DF0BBF8D1
:10C6F000454B0422AB63012329352B7026826682C9
:10C7000023690999E36107980DF0ADF804220799B0
:10C7100008980DF0A8F86622032304A95218D377CD
:10C72000BA225218D377872252005218D377A26ABE
:10C73000A685911CCB771DAB0C9332AB0D930F925A
:10C7400047AB3200314910A80E930AF01EFE30228A
:10C750003121452004AB9B181B7812323B7004AB8F
:10C760009B181B88323A7B8204ABC918C0180DF0A5
:10C770007AF804230CADA0683B75BD61BE8300F060
:10C780003FFA036839001B689847822204AB9B1864
:10C790001B885432238404AB9B181B885432A38417
:10C7A00004AB9B181B88A068638400F029FA07007B
:10C7B0001420FCF78DFD05000C2231000DF071F8FE
:10C7C0002800134B2E6108221093119610A910C057
:10C7D0000DF049F80F4BEB60BB69B34200D02B6101
:10C7E000BD612000FCF796FB20005DB0F0BDC046A7
:10C7F000589D0200BAAC0200EAAC0200DAAC0200BA
:10C80000AAAC02005D730200C9720200CAAC020049
:10C8100081C80100F3720200F0B504000E0015009B
:10C8200085B000930CAB1B881030019309F08CFB92
:10C83000268065801820FCF74BFD070002AE330010
:10C840003D000AAA03CA03C3009B102208C50021A9
:10C8500028000DF026F83100082228000DF003F81A
:10C86000064B02227B61200000230199A7600A4346
:10C87000E360A2802362636205B0F0BD1D73020015
:10C88000F0B50B898DB00593CB68060004934B88F7
:10C89000828C9A420ED1049C059B049A1B1BD318D0
:10C8A000032B3BDD62882188012308A809F057FB90
:10C8B0000434F1E7428C9A4230D1049C059B049ADF
:10C8C0001B1BD318032B29DD23882820069363889C
:10C8D000F7680793124B089300230993FCF7F8FCC1
:10C8E000C0236A460500029308AB03CB03C23300A2
:10C8F0000699079A2800FFF78FFF3B6829005B68BD
:10C9000038009847002807D0002D05D0280009F0EE
:10C9100037FA2800FCF7FEFC0434CFE70DB0F0BD79
:10C92000DD73020070B5040090B080680AF051FD1C
:10C930000223010019401AD1A38D002B17D00D4BF3
:10C940006A4604931023E568A1850591029304AB20
:10C9500041CB41C20A00230006A8FFF75DFF2B6808
:10C9600006A99B682800984706A809F009FA10B0A4
:10C9700070BDC046DD730200002815D00060416024
:10C980008260C360046145618661C7614446046298
:10C990004C464462544684625C46C4626446046306
:10C9A0006E46466374468463002A06D0C46B043C1A
:10C9B000043A25681560B442F9D18C6BA6464E6BDB
:10C9C000B546002B06D0CC6B043C043B1D682560AB
:10C9D000B442F9D10C6BA446CC6AA3468C6AA24639
:10C9E0004C6AA1460C6AA046CF698E694D690C69F4
:10C9F000CB688A6808684968704700604160826057
:10CA0000C360046145618661C761444604624C4667
:10CA10004462544684625C46C462644604636E4663
:10CA2000466374468463C46B043C043925680D6016
:10CA3000B442F9D1C76986694569046970470060E5
:10CA400041608260C360046145618661C76144469C
:10CA500004624C464462544684625C46C462644646
:10CA600004636C4644637446846304697047846B52
:10CA7000A646446BA546046BA446C46AA346846AD2
:10CA8000A246446AA146046AA046C7698669456908
:10CA90000469C368826800684168704710B5041E65
:10CAA0000DD00CF03EFF230001382018834208D23D
:10CAB0001A7801780138197042700133F6E702489C
:10CAC00000E0002010BDC04617FCFFFFF0B585B0A8
:10CAD00001900C1E28D00027C217161A56407D1C44
:10CAE000631902933000013B0A21039304F052F8CA
:10CAF000CB17C9185940039B3031197030000A21F7
:10CB000003F062FF061E01D02F00E8E7019B002B17
:10CB100003DA2D23029ABD1C1370002620006655EF
:10CB2000FFF7BCFF300000E0014805B0F0BDC04693
:10CB300017FCFFFF70B5002403780B4A4533FF3321
:10CB40009B009C50050003F0C5FB0123AB70074E12
:10CB5000A3599D4204D12800FCF7DCFB0023A3511C
:10CB600004340C2CF3D170BD00600040402600203E
:10CB7000002370B504000160436099420AD1064D5C
:10CB80002B68002B02D10BF018FD286023689B0056
:10CB9000EB586360200070BD5826002070B5002857
:10CBA0000DD10C4C2668002E07D108300CF022FE67
:10CBB00005003100FFF7DCFF2560206808E0012256
:10CBC000054906480B68134002D1026043600A60C1
:10CBD00070BDC0464C2600205C2600205026002058
:10CBE000436810B50400002B02D104480CF050FC3F
:10CBF000606803681B69984710BDC046FAAC020024
:10CC0000436810B50400002B02D104480CF040FC2E
:10CC1000606803689B69984710BDC046FAAC020083
:10CC2000436810B50400002B02D104480CF030FC1E
:10CC3000606803685B6A984710BDC046FAAC0200A2
:10CC400000487047FFFF0000F0B597B005930368F8
:10CC500007AD1B680491039311002B00060091C9D6
:10CC600091C30024D36821000C220CA8EB602C6136
:10CC70000CF017FE21000B4B10940F9311AB1C709E
:10CC80001A1901345170102CFAD100225A820193E2
:10CC9000059B2A00009304990CAB3000039CA0472D
:10CCA00017B0F0BDA3820200FC3070B5046C050023
:10CCB000002C0DD124200CF09DFD064B44608361B7
:10CCC000054B8460C46004614461C46103602864EE
:10CCD000286C70BD449E02002C9F0200FC3070B591
:10CCE000C56B0600002D16D134200CF083FD040026
:10CCF000342229000CF0D5FD084BA5606360084B79
:10CD000065612361074B2562E361074BE562A3621E
:10CD1000064BF4632360F06B70BDC046749E020046
:10CD2000649E0200D49E0200E49E0200F49E020073
:10CD30007FB503791548002B26D0154D154C2B785F
:10CD40002000002B20D102AE30000BF087FA002823
:10CD500014D17388592B11D13378B288D91F012986
:10CD600002D800920C4A01E000920C4A20212000D7
:10CD700008F098F901232B70200005E020220849D3
:10CD800020000CF0D5FDF7E704B070BD1DAD02002A
:10CD9000262900202729002037AD020054AD0200CB
:10CDA00079AD020010B50400024B08C00BF0E8FAA0
:10CDB000200010BDE49E020010B50400024B08C024
:10CDC0000BF0DEFA200010BD849E020010B50400B6
:10CDD000024B08C00BF0D4FA200010BD749E020074
:10CDE00010B50400024B08C00BF0CAFA200010BDB9
:10CDF000649E020010B50400024B08C00BF0C0FA9C
:10CE0000200010BD549E020010B50400024B08C063
:10CE10000BF0B6FA200010BD949E020010B504007D
:10CE2000024B08C00BF0ACFA200010BD449E02007B
:10CE300010B50400024B08C00BF0A2FA200010BD90
:10CE4000989D020010B50400024B08C00BF098FA40
:10CE5000200010BD889D020010B50400024B08C0E0
:10CE60000BF08EFA200010BD789D020010B5040072
:10CE7000024B08C00BF084FA200010BDA89D0200F0
:10CE800010B50400024B08C00BF07AFA200010BD68
:10CE9000D49E0200FC3070B5046C0500002C0DD14E
:10CEA00024200CF0A7FC064B44608361054B846092
:10CEB000C46004614461C46103602864286C70BD6F
:10CEC000449E02002C9F0200104B10B508330360F3
:10CED0000F4B0400C36080230E4A5B00C250C01891
:10CEE000FDF756FC20000C4BB830E360FFF7BEFFA7
:10CEF0002000AC30FFF79CFF2000A030FFF7A2FF1E
:10CF000020006C30FFF7A8FF200010BD589F0200E2
:10CF1000A09F0200F8A00200B89D0200F0B5050035
:10CF2000040087B0AC356B68AB60AE68002E08D0EB
:10CF3000F368210030009847AB68002BF3D01B69E1
:10CF4000F2E72000B0300BF01BFA2200FC2358322D
:10CF5000117820000B40137023005C331E700A30E0
:10CF60000BF022FB200034300BF01EFB200064305D
:10CF70000BF006FA200098300BF002FA200001AD09
:10CF8000A4300BF0FDF931000C2228000CF089FCD4
:10CF900023002A006C3383CA83C3094BE667A36767
:10CFA0000C22310028000CF07CFC2300803307CDDC
:10CFB00007C33000034A90341A60266007B0F0BD02
:10CFC0008782020079820200454AF0B50600C260FD
:10CFD000A022444B1636083303600100002342822E
:10CFE0000400320085B0037183600374838235319D
:10CFF0001370013200259142FAD18027802220004F
:10D00000D201BF001100F57737842B00009538302E
:10D0100000F00EFF23002100403303931A002B0081
:10D020005F311370013200258A42FAD1039B22003E
:10D03000DD77230060331F80FC23643211782000E9
:10D040000B401370230068331D70274B2900E366E3
:10D0500025670C2278300CF024FC2300270088334D
:10D060001D60224B0837FB67843729000C223800EB
:10D070000CF017FC1E4B1F4AFB602300A0333D61E0
:10D080001A601D4A5D60DA601C4A1D619A61DD61AB
:10D0900030000BF089FA03980BF086FA184B601CED
:10D0A000E3602300C4331D705D709D70FF3002F09B
:10D0B00045FD8C235B00E55023001933FF335D6190
:10D0C0008023104A5B00E250230001222000FE333F
:10D0D00052425A86023B9D63DD631D6405B0F0BD7C
:10D0E000B89D0200589F0200789D020087820200CE
:10D0F00079820200889D0200989D0200A89D02008E
:10D10000A09F0200F8A0020070B5074C2368002B16
:10D1100007D1A02040000CF06DFB0500FFF754FF85
:10D120002560206870BDC0466026002070B50C22C6
:10D130000D00002104000CF0B4FB00232361024B1E
:10D1400025602000E36070BD9582020070B5002567
:10D150000400264B05710360254B45718360254B08
:10D16000C5604361244B85610362244B4562C36201
:10D17000234B05638363C56329004430FFF7D6FF63
:10D18000200029005830FFF7D1FF200029006C3023
:10D19000FFF7CCFF1B4B220023602300F8328033C3
:10D1A00020C39342FCD126001D00E936FF3628003B
:10D1B0000822002108350CF074FBAE42F7D18E2214
:10D1C000330000209200A11801C300229942FBD134
:10D1D0008E239B00E2540C490C4B6118E3181A8013
:10D1E00002339942FBD1200070BDC046A49E0200CC
:10D1F000549E0200649E0200749E0200849E0200FF
:10D20000949E02002CA00200620200003A0200007C
:10D2100070B500200C00FFF777FF03685B6A984742
:10D220002378142B17D002D8132B05D03FE0152BF1
:10D2300018D0222B35D03AE064680122A378190077
:10D240005D0811402A404568DB065B0F002D2ED09B
:10D250002088A8472BE08368002B28D0626891784B
:10D2600010881CE06468A27813091207120F012AC3
:10D2700002D0022A08D00DE0013BDBB20021022BD4
:10D2800009D80C4AD15C06E00421012B03D00131FE
:10D29000022B00D00021C368002B08D020889847BB
:10D2A00005E00369002B02D06268108898470020CF
:10D2B00070BDC04681AD0200014B18787047C04672
:10D2C00048290020F0B51E002F4B87B00092019333
:10D2D0001A78002305000C009A4252D102F0B4F8EB
:10D2E000002801D00B234CE0002E0ED003A92220F1
:10D2F00003960BF0D8F9002807D00623082840D061
:10D3000011384342434104333BE0002302AA10009A
:10D31000137000F0C1FF011EE4D101261B4F354000
:10D320003A783440B2432A436300022514000720B0
:10D33000009AAC4302401C431C23AA409C43144364
:10D340003C7003AC0C2220000CF0ABFA0920104B0F
:10D350003900039302AB0522C01825710CF083FA43
:10D3600021000C4801F004F8002807D00723042806
:10D3700007D0013B082804D0053302E0019B1E7052
:10D380000300180007B0F0BD4829002089200020C4
:10D3900011D201004729002010B5074801F0B2F86A
:10D3A0000023984206D00733042803D0013B082805
:10D3B00000D00533180010BD47290020002373B5A5
:10D3C00001930F4B01AD1B780E0029002B7001F06B
:10D3D0005FFB041E04D0042305280FD007330DE0A3
:10D3E0003100280000F0FEFF2300002806D00723AC
:10D3F000042803D0013B082800D00533180076BD6F
:10D400004729002073B5104C0E00050005222100AD
:10D4100068460CF028FA012E06D0022E11D1012206
:10D4200023781343B34303E002222378B3439343A7
:10D430006946280023700BF034F9031E02D00B2339
:10D4400000E00223180076BD89200020094B10B5AA
:10D450001A7801000923002A09D0074800F0FAFFD2
:10D460000023984203D003330E2800D00333180062
:10D4700010BDC0464829002047290020024B0B6000
:10D48000092313607047C04684AD020010B5040044
:10D490000020FFF739FE03681B6998470300F33348
:10D4A0001C7086235B00C05003000021044AFC333B
:10D4B0005A61044A99615A62F4300BF048FF10BD7A
:10D4C00095880200A7880200012110B5044A0800CF
:10D4D00001F0C2FB031E00D00B23180010BDC04694
:10D4E0008DD40100F0B593B0019000200C00FFF73F
:10D4F0000BFE03685B6A9847FFF7DEFE06AB002869
:10D500000DD000221A7105AA0692082218001A737B
:10D510000AAA9A60FFF79AFF002802D052E0187119
:10D52000187300231F0023732371019BBA331B78E8
:10D53000BB4246D907237B43019AD218BB321278EB
:10D54000022A31D1002506AE337BAB4236D9072003
:10D550007843AB000293019BAA001818089BBB30CC
:10D5600099580BF0A2F800281BD0B368AA009A586B
:10D57000237BA1689B005A50237B01332373337BA9
:10D580005A1E954208D01049B2685B189B009B5800
:10D5900003930399029BD15006AA137B013B13739B
:10D5A0000CE00135EDB2CEE701992279CB18216864
:10D5B000BB33920053502379013323717B1CDFB2BC
:10D5C000B3E7002013B0F0BDFFFFFF3FF0B59DB003
:10D5D0001F006B4605001A70581C0622229E02ACE2
:10D5E0000CF041F9002F07D03B8823807B886380B3
:10D5F000BB88A380FB8806E032232380DB1863808E
:10D60000F533A780FF33E3800CAB04A9049314AB7C
:10D610008B602F000023B9370B710B733B78002B05
:10D6200017D101203B78022708A903405A000B7844
:10D63000BB4304AF4F601343002E10D0B279834335
:10D64000024013430B7033880B8173884B81B3887E
:10D6500011E02800FFF746FF0028E2D029E02A0069
:10D66000323212788343024013430B70AB8D0B812F
:10D67000EB8D4B812B8E220068468B810BF043F89B
:10D6800003000020834214D00630082B11D005D8A7
:10D690000130042B0DD0834208D109E00520112B65
:10D6A00007D0054A934203D0102B01D00B2000E095
:10D6B00004201DB0F0BDC04602320000F0B50A786B
:10D6C00004009BB00D000220012A42D04B88032A9F
:10D6D00004D1A03B10009BB21F4A03E00320203B73
:10D6E0001E4A9BB2934234D8AA881D4B03209A420B
:10D6F0002FD80AAB009312AB02936A460023260090
:10D7000013711373B8363378002B05D069462000A7
:10D71000FFF7E8FE00281CD104AF182200213800D2
:10D720000CF0BFF82B7838003B7033783B726B46B7
:10D73000FB606B883B82AB887B820AF0CEFF0200E5
:10D740000320002A05D101211000583423780B430F
:10D7500023701BB0F0BDC046603F0000E03F0000FA
:10D76000FF3F0000F0B58DB0050000F0D1FF0020B4
:10D77000FFF7CAFC036807001B6998473B68040071
:10D780009B69380098473B6806005B6A38009847F9
:10D790000300288810380B2800D998E003F080F89F
:10D7A000063D9797975A979797619773AF88200090
:10D7B00039000BF00EF922006B7B5832019313787D
:10D7C000A87919000223194306AB11701F800123A9
:10D7D00006AA9370D07013006A461279E91D9A72F6
:10D7E0002B000622163307A80B930CF03CF82900F7
:10D7F0000B2006AB06220E31C0180CF034F894341E
:10D800006368A360A068002861D0C36806A9984730
:10D81000A368002BF4D01B69F3E720002F49AF88E1
:10D820000BF0D7F82200022058321378A9798343ED
:10D83000137006AB1F809970A0346368A360A06862
:10D84000002844D0C36806A99847A368002BF4D0E9
:10D850001B69F3E75B69A91D002B38D0A88898479E
:10D8600035E0636EAF79002B31D0A366A06E00283F
:10D870002DD0C36839009847A36E002B01D1636E89
:10D88000F3E71B69F1E701220D27AB7BE91D1A4085
:10D8900001925A07920FDB08029206A80622EF5760
:10D8A00004930BF0E0FF6A46127906ABDA716A4620
:10D8B000127A9F711A726A46127C20005A722B00EB
:10D8C0008C340F3309938030236806A998472900C8
:10D8D00030000BF082F90DB0F0BDC046FFFF000034
:10D8E0000723D72802D9024B18600023180070477D
:10D8F000642600201FB5A3238022DB00D205D35865
:10D900000820DB0700D405301E4B48221E4901F0D9
:10D910003DF900280AD080B2002807D1BFF34F8F0D
:10D920001A4A1B4BDA60BFF34F8FFEE702AC0822A6
:10D93000002120000BF0B5FF01232370154B2000C0
:10D940001B6863600BF04FF8002801D0072017E038
:10D9500068460BF046F80028F8D169460BF03FF80E
:10D960000028F3D10C4801F041F980B2002807D11A
:10D970000A4801F045F980B2002801D100F0D6F93B
:10D9800004B010BDF5890200682600200400FA05E5
:10D9900000ED00E06426002065D70100ED8902005B
:10D9A00080B2002807D1BFF34F8F034A034BDA60E0
:10D9B000BFF34F8FFEE770470400FA0500ED00E06B
:10D9C00013B504680093A46813000A000149A04736
:10D9D00016BDC046FFFF000037B506AC25780468C9
:10D9E00001950093246913000A000149A0473EBD38
:10D9F000FFFF0000F0B589B0019307000FAB0D00E9
:10DA000016000021082202A81C780BF04AFF0EAB7A
:10DA10001B8802AA1380019B0393002C06D03100BF
:10DA200028000AF0EFFF002841D154E03B007A794A
:10DA3000F833A2423DD90833190008390988B142A8
:10DA400008D130222034A400E3590133DB7F134294
:10DA500002D12EE00134ECE702220020DB06DB0FCE
:10DA600004ACD31AA370019B2680E3600EABA360C5
:10DA70001A4BA0809D4207D1FFF746FB03681B6944
:10DA800098470AF0A9FF0500210028000AF0BEFF10
:10DA900080B200281FD011281CD013D8082817D016
:10DAA00002AA310028000AF0ADFF002812D003209E
:10DAB00011E002AA310028000AF0A4FF0028F6D1E4
:10DAC000063008E0064B984204D0064B9842E7D156
:10DAD000062000E0052009B0F0BDC046FFFF0000B1
